:020000041000EA
:10000000002008205D0100101B0100101D010010E0
:100010001101001011010010110100101101001058
:100020001901001019010010190100101F01001022
:10003000110100101901001021010010230100100E
:100040001101001011010010110100101101001028
:100050001101001011010010110100101101001018
:100060001101001011010010110100101101001008
:1000700011010010110100101101001011010010F8
:1000800011010010110100101101001011010010E8
:1000900011010010110100101101001011010010D8
:1000A00011010010110100101101001011010010C8
:1000B00011010010110100101101001011010010B8
:1000C00011010010110100101101001011010010A8
:1000D0001101001011010010110100101101001098
:1000E0001101001011010010110100101101001088
:1000F0001101001011010010110100101101001078
:100100001101001011010010110100101101001067
:10011000EFF30580103800BE00BE00BE00BE00BE7A
:1001200000BE00BEF2EB8871F80400101405001048
:10013000A001001090A31AE7D3DEFFFF42012110B7
:10014000FF01000074640200793512AB4FF000002B
:100150002149086006C881F3088810474FF05040D5
:10016000006810B14FF00000F2E70DA40ECC00299A
:1001700002D000F012F8F9E71849194A002000E00F
:1001800001C19142FCD1174988471749884717494F
:10019000884700BEFDE701C901C29A42FBD3704700
:1001A0001405001010010020B4FA0120B8FE01105F
:1001B000B8FA0120AC610220AC65021000000820F2
:1001C00000000820AC650210001008200010082074
:1001D000000000007047000008ED00E0AC61022064
:1001E000004E032055010120CD0100204D010120CA
:1001F00008B10181B0B0008400000000B5540110C6
:10020000B0A80100FFFF0108120420001C0E00002E
:10021000A1540110B0A80100FFFF01081204200042
:100220001C0E000008B10181B0B000840000000085
:1002300081540110A908B100FFFF010008B101813C
:10024000B0B000840000000069540110B0AF12008B
:10025000FF101901101EBC070000F80704AA0901CD
:10026000E4080400000100000000000045540110F3
:1002700000840200FF1019010C04060A010E04128A
:10028000052008000001007F00007D000000000044
:100290000000000008B10181B0B00084000000003F
:1002A00008B10181B0B000840000000005540110C5
:1002B000B0AA0100FF10290118323000006C04A41C
:1002C0000103762E0000C00118E80100E2010E00D3
:1002D000000200017D00000000000000581B021019
:1002E000D1530110B0AB0200FFFF01081C4A6600A9
:1002F0006C040000BD530110B0AF0400FF101901E1
:100300000F320A3C01840142CC0100D401040000F8
:10031000010000000000000008B10181B0B00084BD
:100320000000000008B10181B0B0008400000000AE
:1003300034450110B0B0A8806445011001000000F0
:100340008C460110B0B0AC80B04601100100000036
:10035000904B01109CFEFF7FA84B0110A0FEFF7F79
:10036000D44B0110ACFEFF7F004C0110B8FEFF7FA4
:10037000404C011001000000704C0110B0AA038035
:10038000A04C011001000000C04E0110B0AB028073
:100390006C4F0110010000003850011094FEFF7FE7
:1003A000AC5001100100000064510110B0B0AA80EF
:1003B0001C52011088FEFF7F64520110AB08B1800F
:1003C000F052011084FEFF7F98570110A0FEFF7FBE
:1003D000B857011001000000C0570110B8FEFF7FA0
:1003E000C0570110BCFEFF7FC8570110010000007C
:1003F000D857011000840280145801100100000039
:1004000064580110B0A8018094580110B0B0A880C1
:10041000FC58011098FEFF7F005A011001000000F7
:100420000C5B0110BCFEFF7F845B0110B0B0A880A4
:10043000FC5B01100100000078BB0110B8FEFF7FDB
:1004400054BC01100100000020C00110B0A90280BE
:10045000B4C00110B0B0A88004C1011001000000B8
:1004600010C10110B0B0AA8048C10110AE73B280B3
:100470001CC201100100000018C20110AB3F3880FF
:1004800078C201100100000084C20110B0B0AA803F
:10049000C0C201100100000074C30110AB0EB28095
:1004A000E8C30110B0AF0880A8C601100100000029
:1004B000ACC60110AD3F028058C901100100000018
:1004C00038CB0110B0A8038048CB01100100000018
:1004D00044CB0110B0AD048008CE0110008404802C
:1004E00030CE011034FEFF7F34CE011038FEFF7F86
:0804F00040CE011001000000E4
:1004F800E81A0220F41A0220001B02200C1B02201A
:0C050800181B0220241B0220301B0220C4
:10051400F8B500BF10B5054C237833B9044B13B1BB
:10052400044800E000BF0123237010BD686302206B
:1005340000000000B4FA012008B5034B1BB10349C5
:10054400034800E000BF08BD000000006C63022007
:10055400B4FA012008B50CF0B7F840B1074B0849CC
:100564001A6800F58070BDE808401DF095BE054886
:1005740010F07CF94FF0FF300FF0E8FF48470220FD
:100584004837022094FF012038B5FFF7E3FF01202C
:100594000CF0C6F80DF0D6FD04460D4600F00AFB3B
:1005A40000F06AFB0CF056FAFA2000210CF02AF94C
:1005B400FA3445F10005002DBCBF4FF0FF346FF055
:1005C4000045204629460DF0C5FCE7E700212DE94A
:1005D400F04F08469BB014F087F920B94FF0FF3074
:1005E4001BB0BDE8F08F04A802F0EEFC04A802F0F2
:1005F40021FD04A802F0D2FE474803AB02AA01A9D8
:100604000EF058F800287BD14FF48771434810F05E
:10061400ABF900F0CFFA00F0E9FA00F0CBFA04A944
:1006240000F00EFB01F05CFB01F074FA01F058FBE2
:1006340004A900F00BFC3A4810F0F2F901F050FB69
:1006440000F00AFC0DF07EFD06460F46DFF8E08060
:10065400DFF8E090DFF8E0B04FF0640A0DF072FDCF
:1006640004460D4606E00CF0FFF950B99DF80C0065
:100674000CF0DEF900F09EFA03A900F0E3FA00287A
:10068400F1D198F811305B060DD5D9F8001001317D
:100694008BFB0132CB17C3EB62130AFB1313012B41
:1006A400C9F8001028D000F013F900F057F942F20D
:1006B4001072A11B65EB0703914273F10003CDDBBC
:1006C40000214FF0FF3011F0ABFF07F00DF801F0FF
:1006D40007FB00F0C9FB01F003FB124B2646D3E9EC
:1006E400022301F021F901F0FBFA01F01DFF04A837
:1006F40002F054FE2F46AFE70B4810F035F9D2E76D
:10070400DDE90101039A0DF001FF4FF487710748F9
:1007140010F02AF97DE700BFB01E0400CCFF0120D1
:1007240089010020D0610220E8FF0120B0FF0120F0
:1007340038BD02202C7402201F85EB510346012290
:1007440001481A70704700BF7C060220F0B50E46BF
:1007540015460446137889B0013BDBB2032B96BFE0
:10076400384A394952F8231002463346374810F0C4
:10077400FBF82946204605F081FE354A136801330B
:10078400136000F0C5FA334807F0D0FA324A022366
:10079400009214210A222F4807F0CEFA2B78032B5B
:1007A40044D0022B44D0012B38D02C4A0092012390
:1007B40023220F21274807F0BFFAAB7B03AF142194
:1007C400274A01933846234600960FF02FFE012353
:1007D40032220A211F48009707F0AEFA1D4807F09D
:1007E400D5FA40F6B8300DF013FC2B78022B01D16A
:1007F400AB7B6BB1012300223146204605F0F8FCA7
:1008040001250023314620461A46009505F07EFD59
:100814003146204604F0AAFD09B0F0BD114A142166
:1008240000920C48232207F087FAC6E70E4ABDE778
:100834000E4A012300920A212322064807F07CFA7B
:10084400BBE700BF00010220200002202800022094
:10085400CC4D032040910220580002208800022041
:10086400940002207C000220600002206C00022020
:1008740010B504460A460948214610F075F820468A
:1008840005F008FEBDE81040054A1368002BC4BFFC
:1008940003F1FF33136000F057BA00BFA400022035
:1008A400CC4D03204FF0010C38B5084C0D4623689D
:1008B400114663442360044682F80FC005F0DEFD50
:1008C40029462046BDE8384004F050BDDC630220D0
:1008D40070B5204CD4E88F3FDB0701D51E4870BDAE
:1008E400204614F0BFF90028F8D04FF0333200212D
:1008F4004FF033330020184DC5E90623C5E9000144
:100904001DF0EEFE01464B4203F00F0301F00F0110
:100914004FF0333058BF594202F008FB0646A86135
:100924001DF0DEFE01464B4203F00F0301F00F0100
:10093400304658BF594202F0F9FAE8610DF002FC62
:1009440003462046C5E90431C5E9023114F0A6F98D
:10095400014870BD88630220B0610220F8B50446E6
:100964000DF0F0FB276805460E469FB1D4E902233B
:1009740087EAE771A1EBE7718A1843EBE173002B77
:10098400BCBF4FF0FF326FF00043521B63EB060312
:10099400002B21DB616899B1D4E9042381EAE17079
:1009A400A0EBE170821843EBE073002BBCBF4FF067
:1009B400FF326FF00043521B63EB0603002B00DB96
:1009C400F8BD0029C4E904564FF00101E0690EDDC9
:1009D40002F0AAFAE061F8BD002F4FF00101C4E96A
:1009E4000256A06906DD02F09FFAA061D2E702F088
:1009F4009DFAEFE702F09AFAF7E700BF0000000063
:100A040070B506460D461446C9B931600CB9746018
:100A140070BD20460EF0B2F902460B461CA1D1E986
:100A240000010EF05DF90EF0CDF9002C21DD40F24D
:100A34008923984219DC40F28A23736070BD08460A
:100A44000EF09CF902460B4611A1D1E900010EF00B
:100A540047F90EF0B7F9002D12DD40F289239842D0
:100A640005DC40F28A233360D0E7706070BD3060EB
:100A7400CCE76FF422739842F7DB013B736070BDDF
:100A84006FF422739842F2DB013B3360BEE700BF90
:100A940000000000006AE8402DE9F04116461D46BA
:100AA400414FD7E88F3FDA070AD5404CA36933603A
:100AB400D7E88F3FDB073CD5E3692B60BDE8F081C5
:100AC400384614F0CFF8394C0028EFD00022002328
:100AD400C4E900234FF033324FF03333C4E9062323
:100AE4001DF0FEFD01464B4203F00F0301F00F0120
:100AF4004FF0333058BF594202F018FA8046A061D3
:100B04001DF0EEFD01464B4203F00F0301F00F010F
:100B1400404658BF594202F009FAE0610DF012FB59
:100B2400034638462361A3606161E16014F0B6F8BE
:100B3400BCE71D4814F096F80028BDD0002200231D
:100B44004FF033314FF03330C4E90023C4E90601D8
:100B54001DF0C6FD01464B4203F00F0301F00F01E7
:100B64004FF0333058BF594202F0E0F90646A06115
:100B74001DF0B6FD01464B4203F00F0301F00F01D7
:100B8400304658BF594202F0D1F9E0610DF0DAFA6B
:100B940003460548C4E90431C4E9023114F07EF87F
:100BA400E3692B60BDE8F08188630220B061022014
:100BB400704700BF10B50A4CD4E88F3FDB0701D55E
:100BC400084810BD204614F04DF80028F8D0064817
:100BD4001CF0BEFD204614F061F8024810BD00BFB1
:100BE4008463022030740220B107002038B5124C0F
:100BF4004FF4166120460DF0E7FA022104200CF0B0
:100C0400C1FA022105200CF0BDFA41F684612046A8
:100C14000DF05CFB226B094D02F4404220462A6031
:100C24000821002301220DF09FFB2046BDE8384037
:100C340001210DF0CFBB00BF00800740309007407A
:100C4400016070470B4A08B59369DB0601D50020A3
:100C540008BD936913F01003FBD11268D2B20A7075
:100C6400006820B1194602F067FD012008BD01208B
:100C740008BD00BF00800740034B986980F0200046
:100C8400C0F34010704700BF0080074038B50446E9
:100C9400154DD5E88F3FD8071AD5144BB3F9023058
:100CA400A3420ED012498B699B06FCD4114B0C60F5
:100CB400186828B12246BDE83840012102F03CBD45
:100CC40038BD0B4A93699906FCD40D231360E9E7F8
:100CD400284613F0C7FF0028DFD007481CF038FD72
:100CE400284613F0DBFFD8E784630220C84D0320B5
:100CF4000080074030740220B1070020034BD868FD
:100D040018B15969091A0EF031B9704734740220C8
:100D1400084B186868B1084A084B10B41B6814687B
:100D24000749084A2344126809685DF8044B02F035
:100D3400E7B97047E463022004740220CC4D032019
:100D4400007402209C630220084B186868B1084AAA
:100D5400084B10B41B6814680749084A23441268F6
:100D640009685DF8044B02F0CBB97047E4630220D4
:100D740004740220CC4D0320007402209C630220E2
:100D840070B5054602F028FF01284CD0022816D081
:100D9400032818D1264A274E1368B468013B136010
:100DA400ACB9254B186800283CD0BDE87040204BF6
:100DB400224A23491B681268096802F0A1B91F4A34
:100DC4001368013B13601B4EB468002CE9D006F194
:100DD400040C604604F108010EC99D4207DC51B1C0
:100DE40020460C4604F108010EC99D42F7DD0AB104
:100DF4001446EFE704466445D3D023699D42D0DB13
:100E0400606908B10EF0B0F80E49204614F000F9FC
:100E140018210EF0ABF87369013B7361064B186837
:100E24000028C2D170BD064A1368013B1360CAE7AB
:100E340004740220E8630220E46302209C6302201D
:100E440000740220EC630220704700BF014B19605C
:100E5400704700BFE4630220024B0121186802F0CE
:100E640079B900BFE46302202DE9F04FB24B87B09B
:100E7400DC6803F1040A544500F05A81834606E015
:100E8400204613F0D3FF5045044600F05181257CE1
:100E94006669284602F0A0FE0128F1D1284602F036
:100EA400CBFD0028ECD0284602F05EFF0028E7D1F5
:100EB400B3783278452B02F0110700F03484F178CE
:100EC400452900F091823179452900F08D827179AC
:100ED400452900F08982B179452900F08582F179AC
:100EE400452900F081820020944908702E2B02F0DD
:100EF400440900F00584F2782E2A00F03184317917
:100F04002E2900F05C8370792E2800F05883B07984
:100F14002E2800F05483F0792E2800F050834FF0EF
:100F2400000C87482D2B80F800C000F08A842D2AFD
:100F340000F063832D2900F0608372792D2A00F07C
:100F44005C83B2792D2A00F03A84F2792D2A00F0DC
:100F5400548300217B4A1170412B00F01383F278F3
:100F6400412A964600F0ED813079412800F0E9816C
:100F74007079412800F0E581B079412800F0E181E1
:100F8400F079412800F0DD814FF0000C6E48442BCD
:100F940080F800C000F06583442A00F0FC833079B7
:100FA400442800F0E0827079442800F0DC82B079B3
:100FB400442800F0D882F079442800F0D48200203C
:100FC4006249422B087000F08883422A00F03A8379
:100FD4003079422800F02A837079422800F0268371
:100FE400B079422800F02283F079422800F01E8371
:100FF4004FF0000C5648432B80F800C000F01C84CE
:10100400BEF1430F00F089813279432A00F08581D3
:101014007279432A00F08181B279432A00F07D81FC
:10102400F279432A00F0798100214A4A1170392B60
:1010340000F09880F278392A00F094803379392BC3
:1010440000F090807379392B00F08C80B379392BC0
:1010540000F08880F379392B00F0848000233E4A25
:1010640013703E4A1370002F40F0A88096F90230A6
:10107400B278002B40F36482B9F1000F0DD0382A06
:1010840000F0EC812F2A00F0AE83302A00F0C883F0
:10109400A2F12D03012B40F2C083314B9B5C8DF8F0
:1010A400103096F90320F378002A40F35882B9F1FE
:1010B400000F40F0DB812A4AD35C8DF8113096F999
:1010C40004203379002A40F34682B9F1000F40F03E
:1010D400E381234AD35C8DF8123096F905207379A5
:1010E400002A40F33482B9F1000F40F0EB811C4A2E
:1010F400D35C8DF8133096F90620B379002A40F3B7
:101104002282B9F1000F40F0F381154AD35C8DF8C7
:10111400143096F90720F379002A40F30D82B9F1CF
:10112400000F40F0FB810E4AD35C8DF8153067E068
:1011340007B0BDE8F08F00BFE8630220E44D032050
:10114400E14D0320E24D0320E74D0320E34D03204E
:10115400DF4D0320E04D0320E64D0320E54D032041
:101164004C470220AF4B1A78002A7FF47CAF4FF033
:1011740001019046AC4A1970137883F00103002BE7
:10118400137014BF022300238DF81030A74B19707D
:101194000121019104A9009102235FFA88F1002240
:1011A400284608F1010812F0C7FF00287FF45BAF5E
:1011B400B8F1030FECD1002F3FF458AF4B464FF07A
:1011C400000CA1464FF065084FF0520E1C46B21CAD
:1011D40004A906F1080712F8013B58B200286FDD94
:1011E400002C63D1442B6BD0432B69D0422B67D0A6
:1011F4008F48C35C0B70BA4201F10101EBD14C463C
:10120400DBE903239B1A012B5DD9884B4FF00109BD
:101214001B789DF810109DF811009DF812709DF830
:1012240013C09DF814E09DF8158053B926E00123FE
:1012340002F80930DBE9032309F101099B1A4B4544
:1012440041D9B9F13A0FF2D08945F0D08145EED0B9
:10125400B945ECD0E145EAD0F145E8D0A9EB080363
:10126400B3FA83F35B09E3E7002302F80930DBE90F
:10127400032309F101099B1A994524D2B9F13A0FC4
:10128400F2D0494500F0BF82484500F0BC824F458A
:1012940000F0B982CC4500F0B682CE4500F0B382AE
:1012A400A8EB0903B3FA83F35B09DEE7382B2ED0EE
:1012B4002F2B2FD0302B69D0A3F12D00012891D8EA
:1012C40081F800C097E733782846C3F3400382F8D7
:1012D4002A303378DBF80C20C3F3401382F836301D
:1012E4003378314613F0110F14BF01220022DBF8CA
:1012F4000C305A77337813F0440F14BF01220022C4
:10130400DBF80C3083F8382002F0F8FDB8E581F8FA
:1013140000E070E781F800806DE7002F3FF484AEB1
:10132400DFF8308198F80020002A7FF480AE414B2A
:101334000121186802F01CF8012388F80030B37802
:1013440075E6C7B94FF0000C3B48442B80F800C049
:101354007FF422AE00203949422A08707FF438AE67
:1013640000223749432B0A7000F0CD823279432A98
:101374007FF44EAE58E6DFF8C08098F800204AB1FA
:10138400442B00F07181F278964605E64FF066032F
:101394000B7030E72B4806F0C9FC0F222A4B11468C
:1013A40028480093022306F0C7FC284B23221E2161
:1013B40024480093012306F0BFFC254B32220F2161
:1013C40020480093012306F0B7FC1E4806F0DEFC1B
:1013D40014200BF02DFB4FF4FA700CF019FE0123CE
:1013E40088F80030B378CBE7002F3FF47CADDFF80A
:1013F400688098F8001000297FF478AD0D4BD3F87D
:101404000090484601F0A0FE0146B1FA81F1484639
:10141400490901F09FFE0123327888F80030B3783F
:1014240064E500BFE64D0320DE4D0320E54D0320B7
:101434004C470220E4630220E74D0320E34D0320E0
:10144400DF4D032040910220100102201C010220E4
:1014540024010220E04D0320E44D032052238DF8A3
:10146400103096F90320F378002A78DD382B00F049
:101474008A812F2B00F0AB81302B00F0C081A3F1C7
:101484002D02012A3FF617AE00238DF8113096F98C
:1014940004203379002A5EDD382B00F08C812F2B59
:1014A40000F09D81302B00F0B081A3F12D02012AC0
:1014B4003FF60FAE00238DF8123096F905207379AC
:1014C400002A44DD382B00F056812F2B00F08F8149
:1014D400302B00F0A981A3F12D02012A3FF607AEBB
:1014E40000238DF8133096F90620B379002A2ADDFB
:1014F400382B00F044812F2B00F07D81302B00F03D
:101504009781A3F12D02012A3FF6FFAD00238DF848
:10151400143096F90720F379002A0DDD382B00F0FA
:1015240036812F2B00F05781302B00F07281A3F10C
:101534002D02012A3FF6F7AD00238DF815305FE642
:101544008DF81070ADE500238DF81430E1E500232B
:101554008DF81330CFE500238DF81230BDE500235C
:101564008DF81130ABE507BB0020BC49422B087055
:101574007FF42BAD0020BA4ABEF1430F10707FF404
:1015840043AD51E5002F00F09F81DFF8F88298F811
:101594000020002A3FF4FEAEF278442A964600F07A
:1015A400AA81307944287FF4FEACAC4A1278002A30
:1015B4005ED0422B00F09480F278964605E5B9F1AE
:1015C400000F0CD10020DFF8B8C22D2B8CF80000DE
:1015D40000F08E812D2A00F08B818146AAE4DFF889
:1015E400A08298F80020002A69D02D2B00F02D81CC
:1015F400F2782D2A05D031799CE4B9F1000F3FF43B
:10160400A8ACDFF8848298F80020002A7FF4A4AC08
:10161400944804AB03AA02A90DF04CF8002840F04A
:101624006181012388F80030B37895E46FB9002014
:10163400DFF82CC2432B8CF800007FF4E1AC8A4B1A
:101644001870F8E4002F3FF48BAEDFF8148298F89A
:101654000020002A4AD0432B00F01A8196F803E0B8
:10166400CEE4002F3FF476AE7C4A1278002AA3D150
:101674007E4806F05BFB7E4B14221E217B480093C0
:10168400022306F059FB7B4B2D221421774800934B
:10169400012306F051FB754806F078FB4FF4FA700D
:1016A4000CF0B6FC0BF0A8F801236C4A1370B37865
:1016B4007FE7DFF8CC8198F80020002A9BD16E48A0
:1016C40004AB03AA02A90CF0F5FF002840F0048142
:1016D400012388F80030B37887E7002F3FF44AAF3E
:1016E400DFF87C8198F80020002AB7D1634B0021F1
:1016F400186801F03DFE012388F80030B378AAE7AA
:10170400B9F1000F00F0CC80DFF8748198F8002064
:10171400002AD4D0F2782D2A3FF473AF32792D2ADF
:101724007FF40BAC6DE7002F3FF4DDABDFF85C8199
:1017340098F8001000293FF461AE02F04409F278F1
:101744002E2A7FF4DCABB9F1000FB2D14C4A82F8F7
:10175400009032792D2A36D04FF00009FFF7EDBB07
:10176400B9F1000F7FF43BAF454A2D2B82F800906E
:10177400EFD1FFF7EEBB52238DF81330B3E65223BB
:101784008DF81430C5E652238DF811307FE65223CC
:101794008DF8153034E5002F7FF407AF00212F4872
:1017A400422B017000F0B38031794FF0440E42298E
:1017B4007FF412AC3BE752238DF812307DE6B9F189
:1017C400000F7FF41EAF4FF00009FFF7C2BB652383
:1017D4008DF811305BE665238DF8153010E565232F
:1017E4008DF8123069E665238DF8103039E66523EB
:1017F4008DF8133077E665238DF8143089E6662377
:101804008DF8113043E601232FE566238DF812305D
:1018140053E666238DF81530F2E48DF8107020E657
:1018240066238DF810301CE666238DF813305AE6D3
:1018340066238DF814306CE657BB0B4B1F70FFF713
:10184400FABBB9F1000F3FF484ABDFF83C8098F8A1
:101854000020002A7FF483ABDAE600BFE34D0320C7
:10186400DF4D0320F0490200E04D032040910220A7
:101874002C01022034010220B01E0400E463022083
:10188400E14D0320E74D0320E24D0320E44D032006
:10189400DFF88C8098F80030002B7FF4CBAB46E562
:1018A4001C4A82F80090F2782D2A3FF452AB327928
:1018B4002D2A3FF44EAB72792D2A3FF44AABB2790C
:1018C4002D2A7FF442AB7EE7134A1770F278442A3C
:1018D40096467FF464AB61E70298DDE903120CF0ED
:1018E40015FEF5E60298DDE903120CF00FFE98E60A
:1018F4008146FFF72EBB0949097800293FF4B8AEA9
:101904009646FFF762BB064B1A70FFF797BB4FF082
:10191400440E2FE6E14D0320E74D0320E34D032061
:10192400E04D0320000000002DE9F04F2DED028B67
:101934004FF00009744F83B0FC680437BC42CA46B8
:10194400009006D138E0204613F070FAB8420446FD
:1019540032D0D4E90468F5B2284602F03DF90228F1
:10196400F1D1284602F068F80028ECD0284602F0AD
:10197400FBF983460028E6D1284602F05FFC7F2E5F
:101984004BDD98F8029098F80020B9F1FF0F98F811
:10199400013098F901A000F09C804FFA89F9009871
:1019A4005100836901F0020103F0FC030B43C2F30D
:1019B40040021343836131E0544B186801F0B6FBD5
:1019C4000DF0DCF94EA3D3E900230DF063F90022F6
:1019D4004F4B0DF037F90D460446FEF779FF0646E6
:1019E40048460DF0CBF922462B460DF053F90DF085
:1019F400E9F9074650460DF0C1F922462B460DF091
:101A040049F90DF0DFF93A460146304603B0BDEC22
:101A1400028BBDE8F04FFEF7F3BF20B941462846DC
:101A240002F06CFA8FE70678002E67D008EE105AA1
:101A340001945A4604465D4606E0012921D02178E6
:101A44000135EAB2914233D9342303FB02F6311D46
:101A5400404621440BF068FB0028F0D0A219518ABB
:101A64000929EAD191790029E9D1116B908A0A1EDA
:101A740018BF0122411E8A404BEA020B4FFA8BFB2E
:101A8400DDE7908AA0F13006012ED8D89679002E91
:101A9400D5D1302825D0167C106B721E01FA02F2C3
:101AA400024203D001FA06F2524210438146C6E7CD
:101AB400594618EE105A4B00019C03F00202CBF376
:101AC400400600998B6903F0FC0313431E438E61A7
:101AD400A4E7B3F1000918BF4FF00109C9F10009E7
:101AE4005DE7107C166B421E01FA02F2324203D00B
:101AF40001FA00F252421643B246A0E73246E0E74A
:101B04009A9999999999B93FE8630220E46302206C
:101B14000000F03FD0E903329A4204D00021184675
:101B2400D21A1CF0ABBC7047D9B32DE9F843D0E905
:101B340000630D466FF0004182689E1BD21A9542E5
:101B44000446A1EB060009D818462A4600211CF0D9
:101B540095FC03462B446360BDE8F883A84237D361
:101B6400B5422B4638BF3346F31898461AD2002B99
:101B740018DB18D11F462A460021B8191CF07EFC38
:101B8400D4E90092A2EB0902002A12DCB9F1000F99
:101B94001AD135443D44C4E90075C4F80880BDE851
:101BA400F8837047884640460DF0D8F907468044CC
:101BB400E1E7494638461CF0E5FBA168A1EB0901C1
:101BC40048460DF0D3F9E4E7A168A1EB0901F7E772
:101BD400014813F0AFFB00BF4001022038B54FF4B9
:101BE400807200244FF0FF33054684618283C0E98C
:101BF4000033C0E90234C0E9044480210C30FFF70B
:101C040093FFD5E90302824203D02146121A1CF045
:101C140035FC0A200BF0EEFA00240A2044EC4400C0
:101C2400012122460BF0CCFA0B200BF0E3FA0B2037
:101C340044EC4400012122460BF0C2FA0C200BF0C4
:101C4400D9FA0C2044EC4400012122460BF0B8FAE6
:101C54000D200BF0CFFA0D2044EC44000121224664
:101C64000BF0AEFA0E200BF0C5FA0E2044EC440043
:101C7400012122460BF0A4FA13200BF0BBFA132027
:101C840044EC4400012122460BF09AFA14200BF094
:101C9400B1FA142044EC4400012122460BF090FADE
:101CA40015200BF0A7FA152044EC4400012122462C
:101CB4000BF086FA16200BF09DFA162044EC440033
:101CC400012122460BF07CFA1A200BF093FA1A2019
:101CD40044EC4400012122460BF072FA284638BD38
:101CE40010B50B4CD4E88F3FDB0701D5094810BD74
:101CF400204612F0B7FF0028F8D00648FFF76EFF21
:101D040005481BF025FD204612F0C8FF014810BD10
:101D14008C63022034740220FD08002010B50C4CA2
:101D2400D4E88F3FDB0702D50A4B986910BD2046E3
:101D340012F098FF0028F7D00648FFF74FFF064837
:101D44001BF006FD204612F0A9FF024B986910BD56
:101D54008C63022034740220FD08002010B50C4C62
:101D6400D4E88F3FDB0702D50A4B187F10BD20460D
:101D740012F078FF0028F7D00648FFF72FFF064837
:101D84001BF0E6FC204612F089FF024B187F10BDC1
:101D94008C63022034740220FD08002038B5044608
:101DA4000D4DD5E88F3FDA0706D5230657BF0B4BF9
:101DB4000020DB68185D38BD284612F053FF002868
:101DC400F3D00648FFF70AFF05481BF0C1FC28467C
:101DD40012F064FFE9E700BF8C6302203474022030
:101DE400FD08002010B50E4CD4E88F3FDB0707D563
:101DF4000C4B186801F0A8F9003818BF012010BD79
:101E0400204612F02FFF0028F2D00748FFF7E6FE25
:101E140006481BF09DFC204612F040FFE8E700BF97
:101E24008C630220E463022034740220FD08002045
:101E34002DE9F84FD0E900896FF060449246A9EB90
:101E44000802B4EBA20F58D09310012B1A4638BFE6
:101E540001229B1806460F464BD2A1EB0805002B26
:101E64003DD11C469B46DAF80030002D4BF8053076
:101E740024DCA9EB07090435B9F1000F5D4413DC38
:101E84004D44B8F1000F04D1C6E900B5B460BDE813
:101E9400F88FB168A1EB080140460DF067F8C6E978
:101EA40000B5B460BDE8F88F284639464A461CF0B0
:101EB400F3F94D44B8F1000FE6D0EAE72A4641466B
:101EC4005846A9EB07091CF05DFA0435B9F1000F77
:101ED4005D44E9DCB1684D44A1EB0801DCE7A342B1
:101EE40028BF23469C0020460DF038F8834604445E
:101EF400B9E7034CA1EB0805F5E7024813F01AFA19
:101F0400FCFFFF7F5C0102202DE9F0430E1DB2426D
:101F14008846814683B028D01D6813691446AB42B5
:101F240012DDCF68974276D0104612F097FF03690E
:101F3400AB425CDAC368002B00F08E804846C9E9E6
:101F4400004403B0BDE8F08343DA0B6993427FD0C9
:101F5400104612F06BFF03699D4223DAE368002BFD
:101F640000F09780C9E9000036E04A6922B10A69A5
:101F740018681169884233DCD8F80840002C50D026
:101F84001F682269D4E90265974207DA002E49D016
:101F940034462269D4E902659742F7DB002D55D017
:101FA4002C46EEE7D8F80840002C7BD0D4E9023167
:101FB4002269954253DA002B53D1D8F80C309C4255
:101FC40061D0204612F04AFF234604460269954236
:101FD4003EDC0023C9E90043484603B0BDE8F08372
:101FE40000234846C9E9003203B0BDE8F083D8F8BD
:101FF4000840002C37D004F108010EC99D4206DACE
:1020040091B30C4604F108010EC99D42F8DB002A85
:102014003DD01446EFE7C0E90077484603B0BDE879
:10202400F0833446D8F80C20A2422CD020460193E9
:1020340012F014FF21460446019B02691F68BA424C
:102044004FF00003C6DAC9E90031C5E72146F6E7D7
:102054000022C9E90023BFE7C9E90030BCE7D9B1D0
:102064000B461C46A2E73446A74217D0204612F07E
:10207400F5FE2246044603699D424FF00003A9DDA4
:10208400C9E90032A8E70023C9E90034A4E72246DD
:10209400F2E7C9E900349FE7234698E70023C9E93A
:1020A400003799E7344688E72DE9F04F2DED028B90
:1020B4000D4600208DB008A9ADF82000ADF8280029
:1020C400174605F07F000AAA98460FF05BFFBDF89B
:1020D4002810BDF8200005F07DFCEEB220B130469A
:1020E40001F0AAFC044648BB304601F0A5FC0446B6
:1020F40030B9002420460DB0BDEC028BBDE8F08F52
:10210400304601F031FE0028F3D1A84A93680292C8
:10211400002B00F001820432914601921A69D3E93E
:102124000210AA4206DA58B303461A69D3E9021028
:10213400AA42F8DB994619B30B46EFE7304601F0A3
:1021440013FE0028D0D1994A93680292002B00F024
:10215400F0800432914601921A69D3E90210AA422E
:1021640008DA002800F0988103461A69D3E90210BE
:10217400AA42F6DB9946002900F08E810B46EBE774
:10218400019B994503D0D9F81030AB4221DD1820CA
:10219400CDF80C900CF0E2FE00238446039ACCE9BF
:1021A400045382490CF1100308A8E146FFF7ACFE82
:1021B400DDE90832002A00F08C81002B00F0AD80AC
:1021C40020467B4B494612F063FE029A5369013361
:1021D4005361D9F81430304608EE103A02F02EF864
:1021E400B0B30278A2B34FF0000A08EE906AD14669
:1021F400D3460646C246B84618EE107A09E0012BCB
:1022040000F01D8133780BF1010B5FFA8BF94B451C
:102214001CD9342303FB09F909F10401384631447C
:102224000AF082FF0028EDD0B144B9F81230092B2E
:10223400E5D199F80630002BE4D1D9F83030002BE1
:10224400E0D04FF001038AF80030DBE718EE906A23
:10225400029B019F9B68ABB1D3E902101A699542B6
:1022640006DD48B103461A69D3E902109542F8DC49
:102274001F4609B10B46EFE7019B9F4202D03B6921
:10228400AB421CDD182003970CF068FE00230746C0
:10229400039AC7E9045345490AA807F11003FFF755
:1022A40033FEDDE90A52002A31D06DB12046404B9D
:1022B400394612F0EDFD029A5369013353613046F9
:1022C400796901F01BFE15E7019B9A42EED038694B
:1022D40013699842ACBF00200120E8E7019B9F42AC
:1022E40002D03B69AB42EADD182003970CF036FEBE
:1022F40000230746039AC7E904532C4906A807F1AB
:102304001003FFF701FEDDE90652002ACDD138465D
:1023140018210CF02BFE2F46D1E7019B9A423FF483
:102324004FAFD9F8100013699842ACBF00200120C8
:1023340047E713460433994601931820CDF80C90CF
:102344000CF00CFE00238446039ACCE9045317498D
:102354000CF1100304A8E146FFF7D6FDDDE90432D1
:10236400002A00F0BC802BB32046114B494612F0E2
:102374008FFD029A536901335361D9F81430002B4D
:102384003FF4B2AE00223A7088F800205A78187AE6
:10239400072A597A00F28C80013A062A00F2C18099
:1023A400DFE802F04A4744413E3B1300E863022061
:1023B400EC630220019B9A42D6D0D9F8100013692D
:1023C4009842ACBF00200120CFE705223A70DB78A9
:1023D400002B6BD198F80030102901D8102800D9AF
:1023E400012388F80030029B019F9B68002B3FF477
:1023F4007BAFD3E902101A69AA4208DA00283FF435
:102404006DAF03461A69D3E90210AA42F6DB1F46F0
:1024140000293FF463AF0B46EBE704223A70D6E79A
:1024240006223A70D3E702223A70D0E70A223A70C1
:10243400CDE708223A70CAE709223A70C7E7B9F82B
:102444001430A3F13002012A3FF6DCAE99F80620DD
:10245400002A7FF4D7AE302BD9F8303008BF0821DA
:10246400A3F171020DBF6FF00C036FF0030302219F
:10247400042018BF01201E2A98F8002003EA020352
:1024840037D95BB288F80030D9F830206F2A2CD8BD
:10249400034388F80030B5E6019B99453FF44DAFFE
:1024A400D9F81030AB427FF768AF46E7012393E7D2
:1024B40093F804C05A79BCF16F0F25D84FF0040C7F
:1024C40087F800C06F2A17D83A7842F001023A70B0
:1024D4007DE74846182199460CF048FD79E64846C0
:1024E400182199460CF042FD47E7902A7FF68AAE00
:1024F4000B4388F8003085E6902A7FF668AF3A7877
:1025040042F002023A7062E7BCF1900F84BF4FF0D0
:10251400080C87F800C0D5E71346043399460193A5
:1025240035E601223A7052E72DE9F04F2DED028B8A
:102534004FF000084FF000090023BB4F89B0FD683D
:102544000437BD420446CDE90489069322D002AE85
:1025540005E0284612F06AFCB84205461AD005F197
:10256400100393E8030086E803009DF8080001F0D7
:1025740033FB0328EDD1DDE90513994200F03181E5
:10258400029B284641F8043B059112F04FFCB842E7
:102594000546E4D1002601253746DFF8A482DFF89A
:1025A400A4920023D8F800008DF807308DF8083085
:1025B40000F0C4FD2841C1074DD59C4A012D136884
:1025C40003F10103136013D0D8F8000000F0BCFD40
:1025D400002800F0A780731C3AD1049818B106991A
:1025E400091A0CF0C3FC09B0BDEC028BBDE8F08FF6
:1025F4004FF050404268A36982F4804203F0FE0326
:10260400C2F380321A43A261436842689DF80710FE
:1026140012054FF0504283F48063C3F38023526861
:1026240043EA01035BB258BF43F00203D0044FF006
:102634005042526858BF43F004039104227F58BFAC
:1026440043F00803DBB202F00F0242EA03132377DC
:10265400013D013EA5E7D9F800300133C9F8003047
:10266400DDE904239B1AB7EBA30FC0F08B800DF1B7
:10267400070308EE103A0DF1080B4FF0010A50461B
:1026840004F06AF80AF1010A5FFA8AFA18B1437889
:10269400002B40F0AB80BAF1080FF0D14FF0010AE3
:1026A400504604F0E1FA0AF1010A5FFA8AFA18B115
:1026B4004378002B40F0B080BAF1080FF0D14FF00E
:1026C400010A504604F0E6FC0AF1010A5FFA8AFAAC
:1026D40018B18378002B40F09480BAF1080FF0D140
:1026E4005A4618EE101A284603F0DEFE00283FF47E
:1026F40072AF4F4A136801331360002D59D0A36998
:102704009DF8082003F0FE03002A18BF43F00103DC
:10271400A361237F9DF8072003F00F0343EA02130C
:10272400237758E74FF050425268A36952014FF0A3
:10273400504203F0FD0358BF43F00203A361536802
:1027440052689DF80710D0024FF0504283F40023E2
:10275400C3F3C043526843EA01035BB258BF43F07A
:10276400020391024FF05042526858BF43F00403F1
:102774005202227F58BF43F0080322F00F02134392
:10278400237728E70DF107030DF1080B52F8271002
:1027940008EE103A1A4620465B46FFF785FC0137DF
:1027A40000283FF46AAF234A136801331360002DF5
:1027B400A5D1D8F8000000F0C7FC00287FF40DAFC5
:1027C400A2699DF8083002F0FD020BB142F002024A
:1027D400237F9DF8071023F00F030B43A261237797
:1027E400FBE6324604A8FFF723FBB2E65B4618EE8D
:1027F400102AE9B203F0D0FF0F4A136801331360C3
:102804007BE75B4618EE102AE9B204F009FE0B4A96
:1028140013680133136070E75B4618EE102AE9B2BF
:1028240004F044FA69E700BFE8630220D0630220A1
:10283400A4630220D4630220A0630220A8630220C0
:10284400E4630220AC63022010B50E4CD4E88F3F41
:10285400DB0704D5BDE810400B48FFF765BE2046F2
:1028640012F000FA0028F5D00748FFF7B7F9074837
:102874001AF06EFF204612F011FABDE8104002482B
:10288400FFF752BE8C63022034740220FD0800203E
:102894002DE9F043030691B000F07F0415D5A04E56
:1028A400B368371D3D46002B34D003F1080007C838
:1028B400944207DC48B31D46034603F1080007C8E9
:1028C4009442F7DD01B30B46EFE7204601F084F9AB
:1028D400012800F0A4800228E1D0032800F001813F
:1028E400904B186868B1904A904B14689049914A8B
:1028F4001B6812680968234411B0BDE8F04300F076
:10290400FFBB11B0BDE8F0832B46BB4202D01B696C
:102914009C421FDA204601F0C7FB0CF021FBB5688E
:102924008146002D00F0CB82A846834808F10801B7
:102934000EC99C4209DC002900F03F8140468846CC
:1029440008F108010EC99C42F5DD002A00F034812B
:102954009046EBE7204601F0A7FB0CF001FBB568BD
:10296400814644F08008002D00F094802C46724883
:1029740004F108010EC9984507DC51B120460C4604
:1029840004F108010EC99845F7DD0AB11446EFE7D2
:102994000446BC427FD0236998457CDBC4F814907C
:1029A400654805F108010EC9984507DC51B1284670
:1029B4000D4605F108010EC99845F7DD0AB1154623
:1029C400EFE70546BD4202D02B6998451EDA182070
:1029D4000CF0C4FA002304462A46C4E9048350498F
:1029E40004F110030AA82546FFF78EFADDE90A422E
:1029F400002A00F09881002C00F0AB8101204E4B9E
:102A0400294612F045FA73690133736140466969D6
:102A140001F074FA474A13680133136060E7404ECB
:102A2400B368371D3D46BBB1D3E9022019698C4216
:102A340007DC5AB11D461346D3E9022019698C42BA
:102A4400F7DD10B102461346F6E72B46BB4203D02E
:102A54001B699C42BFF644AF08200CF081FAB568AC
:102A64008046002D00F0DC812B46B946D3E90202F2
:102A740019698C4209DC9946002800F074810346E8
:102A84001969D3E902028C42F5DD002A00F06B815A
:102A94001346EBE7284C18200CF060FA0023054697
:102AA4002246C5E904831E4905F1100308A8FFF76F
:102AB4002BFADDE90832002A00F03B81002B00F0FC
:102AC4003E8101201C4B294612F0E2F9736901335F
:102AD4007361C5F81490B568002D7FF461AF164D8D
:102AE40075E7204601F0E0FA0CF03AFA0C4E814604
:102AF400B568002D00F0CC81371DA846384608F192
:102B040008010EC99C4207DCC9B14046884608F159
:102B140008010EC99C42F7DD82B19046EFE700BF81
:102B2400E8630220E463022004740220CC4D0320F5
:102B3400007402209C630220EC6302208046B845A6
:102B440003D0D8F810309C4272DA18200CF006FA40
:102B5400002305464246C5E90443AD4905F1100387
:102B64000CA8FFF7D1F9DDE90C32002A66D0002B5E
:102B740000F084810120A74B294612F089F973697A
:102B840001337361C5F81490B568002D62D03846DE
:102B940005F108010EC99C4209DC002900F0968069
:102BA40028460D4605F108010EC99C42F5DD002AB0
:102BB40000F08B801546EBE78046B84503D0D8F883
:102BC40010309C4237DA18200CF0C8F9002305466F
:102BD4004246C5E904438E4905F1100304A8FFF7F2
:102BE40093F9DDE904327AB3002B00F05E81012011
:102BF400884B294612F04CF9736901337361C5F8A7
:102C04001490B568002D00F05D81824805F108013B
:102C14000EC99C4208DC00295FD028460D4605F108
:102C240008010EC99C42F6DD002A55D01546EDE791
:102C3400C8F81490ABE7C8F81490E6E728461821C2
:102C44001D460CF093F99DE7284618211D460CF00B
:102C54008DF9D4E73D4618200CF080F90023844612
:102C64002A46CCE904436A490EA80CF110036546D0
:102C7400FFF74AF9DDE90E82002A00F0BC80B8F1C2
:102C8400000F00F0F1800120624B294612F000F998
:102C94007369013373616969204601F02FF95E4855
:102CA40008A903680AAA0133036020460FF06AF9F1
:102CB400BDF82810BDF8200004F08CFE00283FF475
:102CC4000FAE204604F092FE0AE60546BD42C2D08D
:102CD4002B699C42DFDABEE70546BD4202D02B6970
:102CE4009C421EDA18200CF039F9002384462A4647
:102CF400CCE90443464906A80CF110036546FFF7E6
:102D040003F9DDE90682002A7BD0B8F1000F00F058
:102D1400C28001203F4B294612F0BAF8736901338F
:102D24007361204673E6284618210CF01FF92546E6
:102D34006CE6284618211D460CF018F9C9E6BA427B
:102D44003FF4BFAE286913699842ACBF002001204C
:102D5400B8E6BA423FF452AE286913699842ACBF50
:102D6400002001204BE6B9455BD0D9F810309C42D5
:102D740057DBC9F81480384605F108010EC99C4296
:102D840007DC51B128460D4605F108010EC99C42E5
:102D9400F7DD0AB11546EFE70546BD4202D02B69BF
:102DA4009C421FDA18200CF0D9F8002384462A46E6
:102DB400CCE90443164902A80CF110036546FFF759
:102DC400A3F8DDE90282002A00F08480B8F1000F44
:102DD40000F0868001200F4B294612F059F87369E0
:102DE400013373612046696901F088F80B4A13685E
:102DF4000133136074E5284618210CF0B7F84546F2
:102E040049E7284618210CF0B1F845462046FEE56E
:102E1400E8630220EC6302200474022000740220A0
:102E2400B94618200CF09AF8002305464A46C5E92D
:102E34000443684605F110033349FFF765F8DDE9FB
:102E44000032002A40D0002B54D001202F4B2946B9
:102E540012F01EF8736901337361C5F81480B56804
:102E6400002D88D13D469DE7BA423FF40CAF286956
:102E740013699842ACBF0020012005E7BA423FF431
:102E840079AE286913699842ACBF0020012072E62C
:102E9400371DB84659E6BA423FF43BAF2869136977
:102EA4009842ACBF0020012034E7BA423FF49FAE01
:102EB400286913699842ACBF0020012098E6DFF826
:102EC4004C8080E6114D0DE7284618211D460CF074
:102ED4004DF8C2E7284618210CF048F8454681E72A
:102EE400BA423FF477AF286913699842ACBF002017
:102EF400012070E7BA42A8D0286913699842ACBF90
:102F040000200120A2E700BFE8630220EC63022056
:102F14000022044B191DC3E903111A719A605A6106
:102F2400704700BFE8630220C8417047C1F1200127
:102F3400C841704770B5044631B90578012D2ED0CB
:102F4400023D012D19D970BD0229FCD10578012D4E
:102F5400F6D1461C304600F025FD90F90130072BD0
:102F6400F1DC304600F01EFD03465A78304601324B
:102F74005A7000F01BFDA57070BD661C304600F051
:102F840011FD024601252378D178023B05FA03F3AB
:102F94004B403046D37000F009FDA57070BD461C4F
:102FA400304600F0FFFC90F901300633CBDB3046AD
:102FB40000F0F8FC03465A783046013A5A7000F0A3
:102FC400F5FCA57070BD00BF70B50025044600F87F
:102FD400015B00F0BBFC0126002200230821C4E9A8
:102FE4000623C4E90823C4E90A23C4E90C23C4E979
:102FF4000155C4E90355A670616120200BF0AEFFB2
:1030040006464FF4FC70266165690BF0A7FF034682
:10301400013D6D0806EB85026262626303F5FC7292
:103024002046C4E90732C4E90B3246F82530A361CF
:10303400A36270BDF0B500272E4C83B005462E491F
:1030440020460DF0BFFD032108200AF09BF8032160
:1030540009200AF097F83A46012108200AF0B0F84E
:103064003A46012109200AF0ABF83C238021009460
:103074004022224804F0C2FD122011211023C5E988
:10308400100105F1400405F14C06AB6420680AF018
:10309400B1F854F8040B47EC4400002201210AF073
:1030A4008FF8B442F2D16C1C204600F07BFC90F9FE
:1030B4000130DA1D12DB082B05DC0BF043F8C5E9FF
:1030C4000E0103B0F0BD204600F06CFC08234370F1
:1030D4000BF038F8C5E90E0103B0F0BD204600F04E
:1030E40061FCF92343700BF02DF8C5E90E0103B020
:1030F400F0BD00BFDC580220801A06004091022077
:1031040010B444688C4209D04FF0010C80F802C01E
:10311400C0E901125DF8044BC360704784689442AF
:10312400F2D1C4689C42EFD1F2E700BF08B5013088
:1031340000F038FC90F9010008BD00BF08B501306B
:1031440000F030FCC07808BD08B5013000F02AFC5E
:10315400807808BD70B5461C044630460D4600F024
:1031640021FC034630469D7000F020FC0123A3702F
:1031740070BD00BF2DE9F04F05468DB0384804F00E
:10318400D5FDD5E90883AC69D5F828900293A1450B
:103194002BD00026B246DFF8C8B008AF0697D4E9B2
:1031A4000035002B52D00F2D059531D8012D50D16B
:1031B4001B788DF820303B46079503F805A0069947
:1031C4003246584600910123002104F0B5FD0698CB
:1031D4000936B842F6B203D0089901310BF0C6FEA5
:1031E4001834444525D0A145D8D11E4C0123009460
:1031F4001D4C1B2218211A4804F09EFD01230022B5
:1032040022211748009404F097FD0DB0BDE8F08F1B
:10321400002205A906A8039312F0A6F8059A039BB9
:10322400089206902A4619461BF036F8DDE9055344
:10323400C2E7029B5C680433A14504F5FC78D4D052
:1032440006970293D4E90035002BACD12DB93B4647
:10325400B2E7002DFBD03846E4E7044812F050F8FA
:1032640040910220A4010220B00102207801022032
:1032740070B505468AB005200BF042F9064634487D
:1032840004F054FD334800F021FB02AC02466B68A5
:10329400204631490DF0B4F80022012311462C4890
:1032A400009404F049FD2D4800F010FBAB68024681
:1032B400294920460DF0A4F80123092200212448BD
:1032C400009404F039FD264800F000FBEB68024648
:1032D400214920460DF094F80021012312221C48B4
:1032E400009404F029FD681C00F05CFB1D4A1E4B91
:1032F4008078002814BF1046184600F0E7FA01460B
:1033040020461BF085FD01231B2200211048009458
:1033140004F012FD30460BF043FD0BA3D3E9002368
:103324000BF0DEFC02460B46204610490DF068F80F
:103334000123242200210648009404F0FDFC0AB075
:1033440070BD00BFAFF300800000000080842E41F8
:1033540040910220D8010220E8010220F00102205D
:10336400FC010220B8010220C80102200C02022044
:10337400012900D97047F8B5471C054638460C4664
:1033840000F010FB03460126D97806FA04F44C40F9
:103394003846DC7000F00AFBAE70F8BD4FF05043C5
:1033A40001212DE9F041026C5B689140194004460B
:1033B4008AB034D1C36C0A2B03DC01330A2BC364F7
:1033C40079D04FF050410122636C496802FA03F34B
:1033D4000B4227D0002323654FF050420123A16CF8
:1033E40052688B4013425AD1636D0A2B5ADDA3787D
:1033F400002B51D000262578A670012D5ED0022D19
:1034040000F08880032D00F0A280042D00F0B1802C
:10341400E5B163480AB0BDE8F04104F0B7BC00234D
:10342400C364CEE7236D0A2BD6DC01330A2B236554
:10343400D2D123785B490133A1FB0301A27001F4CB
:10344400FE7202EB91015B1A2370C5E7544804F045
:103454006DFC554802232A461E210090504804F072
:103464006BFC5248012319221C2100904C4804F0A3
:1034740063FC28224E49012349480091114604F077
:103484005BFC4C480123009037222D21444804F072
:1034940053FCA378002BBCD00AB0BDE8F081002314
:1034A4006365A4E701330A2B6365A0D1022120469A
:1034B400FFF740FD9BE7FFF73DFD82E72046FFF75E
:1034C400D7FE3D4800F002FA07462B4631460DF17F
:1034D400080800972D22324804F02EFCC446374FCA
:1034E4000FCFACE80F003B68601C8CF8003000F094
:1034F40059FA074631462A262B4697F901503622B7
:1035040028356D44CDF80080254805F8196C04F081
:1035140013FCBEE72046FFF7ABFE601C00F042FA46
:10352400844602AD324628469CF803C0244F254BFE
:1035340025491CF0010F18BF3B460CF061FF012325
:10354400362231461648009504F0F6FBA1E72046E2
:10355400FFF78EFE601C00F025FA84469CF803C039
:1035640002AD01222846164F164B17491CF0020FD4
:10357400E1E70AF0E7FDD4E90E25144F821A61EB66
:103584000505974276EB0502034602DB0123A3708F
:1035940082E72046C4E90E31FFF7ECFD79E700BF6E
:1035A40040910220CDCCCCCC540202205C020220FB
:1035B40068020220700202201C020220280202205B
:1035C4003C02022044020220480202201FA10700FC
:1035D4002DE9F8430446476A0D46D0E905127E1AE0
:1035E400C0694FEAA60808F1FF33DFF844E1121A74
:1035F40003EB4303D210C3EBC3030EFB0233A068F7
:103604002269DFF830C1121AD2100EFB023363456F
:1036140000F08780D4E900023B1AA2EBA303012B3C
:1036240021D94FF4FC700BF099FC2A467860A36909
:1036340003F10800186052F8081B91425DD019602C
:10364400A96899602A600022696859602A72636ACD
:103654006A605A68043302F5FC71C4E907216362A5
:10366400A261BDE8F88308F10208B2EB480F33D831
:10367400971C012A2CBFBF180137B7F1005F53D242
:10368400B8000BF06BFC626A6169A7EB08080432AE
:103694004FEA58089142814600EB880803D040461F
:1036A400521A1AF06FFE6168206889000BF05EFC04
:1036B400C4E90097D8F8003008EB0607E36003F587
:1036C400FC73236158F80630C4F8148003F5FC72C7
:1036D400C4E907326762A4E7A2EB08084FEA580876
:1036E40000EB8808414507F1040711D9B942E1D03C
:1036F40040467A1A1AF046FEDCE7D5F808C0576847
:103704009668D168C3F808C0DF601E61596199E703
:10371400B942CFD07A1A301D801A40441AF032FED2
:10372400C8E7024811F006FE11F0DAFD7802022023
:10373400ABAAAAAA55555505F0B513465F4C604A85
:1037440091B0002918BF22465E49044608A80CF02F
:1037540057FE04AE08A802961BF09EFD0F280546EE
:10376400019000F29680012879D132469DF82030EC
:103774008DF81030002303955355236BA56A183B2D
:103784009D4278D005F108072F60029BB34200F0F8
:103794008F802B60049BAB60A26A039B18326B6022
:1037A400A262D4F834C0636AE76AACEB03039B10EB
:1037B400013B454D03EB4303D21BD210C3EBC303C0
:1037C40005FB0233266AA269B11AC91005FB01334D
:1037D400072B25D848E0134653F8080B984206D027
:1037E400916801310BF0C2FBD4F834C0E76AA269D6
:1037F400266A1832B31ADB1005FB03F0636AA26170
:10380400ACEB0303A16A9B10013B03EB4303C91B0D
:10381400C3EBC303C91005FB01330344072B23D9AE
:10382400A6F118039A42D6D11068103EB04203D0D4
:10383400916801310BF09AFBE0694FF4FC710BF0D5
:1038440095FB636A15205A68043302F5FC76C4E9D3
:103854000726D4F834C0E76A6362A261D0E732462F
:10386400002887D030461CE02378042B04BF0123B2
:10387400A37011B0F0BD04F1100002A9FFF7A8FE77
:103884000298B04203D0049901310BF06FFBA26A95
:1038940087E7002202A801A911F066FD019B0290AE
:1038A40004932A4608A91AF0F7FCDDE9015261E7FE
:1038B4000FCEA860E9602A616B616DE7A80202205F
:1038C400D41B0220B8020220ABAAAAAA10B516493A
:1038D40004461BF0BFF9F8B1204614491BF0BAF9AD
:1038E400C0B1204612491BF0B5F9C8B120461149B0
:1038F4001BF0B0F990B120460F491BF0ABF988B129
:1039040020460E491BF0A6F902460C48002A18BFAF
:10391400204610BD0A4810BD0A4810BD054810BD18
:10392400094810BD044810BDD8010220F00102204E
:10393400FC010220B8010220C80102201C0202205E
:10394400D0020220C0020220E002022070B5124C14
:1039540005464FF48052204610491AF09DFC237806
:10396400012B17D04FF48052002120461AF086FD17
:1039740001232370EFF3108672B64FF48051084888
:103984001CF0FCFB4FF48072214605481CF04CFCF3
:1039940086F31088284670BD0064022000F01F10D2
:1039A40000F01F00004870470064022010B5EFF3D8
:1039B400108472B64FF4805105481CF0DFFB4FF4BD
:1039C4008072034803491CF02FFC84F3108810BD57
:1039D40000F01F000064022016490B78C3B9836805
:1039E40093B9C389012B16D1028A303A92B2012AC3
:1039F40011D802220A7013E09A88042A0DD0022AF0
:103A040016D09B68002BECD05A88012AF9D1F3E731
:103A1400023B012B03D90020704703230B70C38999
:103A240023F00800A0F10100B0FA80F040097047CB
:103A34000A70F4E7F24D03200206644B31D41A787D
:103A440082421FD093F83825824257D093F8702AC7
:103A5400824259D093F8A82F82425BD05C4A92F8F4
:103A6400E01481425CD092F8181A81425ED092F838
:103A7400501F814260D0574A92F88814814261D025
:103A840000207047DA78002ADCD000224FF4A761C6
:103A940001FB0233DA78002AF2D05978187810F052
:103AA40013BB1A7880F08000824251D093F83825F5
:103AB400824254D093F8702A824259D093F8A82FA6
:103AC40082425ED0424A92F8E014814262D092F877
:103AD400181A814267D092F8501F81426CD03D4938
:103AE40091F888248242CBD191F88B24002AC7D044
:103AF40091F88A24022AC3D10722C7E793F83B2509
:103B0400002AA3D00122C1E793F8732A002AA1D086
:103B14000222BBE793F8AB2F002A9FD00322B5E71C
:103B240092F8E31400299ED00422AFE792F81B1AFE
:103B340000299CD00522A9E792F8532F002A9AD095
:103B44000622A3E792F88B24002AD5D100207047DF
:103B5400DA78002AAAD09A78022AA7D195E793F8AE
:103B64003B25002AA6D093F83A25022AA2D1C9E718
:103B740093F8732A002AA1D093F8722A022A9DD1BD
:103B840084E793F8AB2F002A9CD093F8AA2F022A3B
:103B940098D1C3E792F8E314002998D092F8E2147C
:103BA400022994D1C0E792F81B1A002993D092F805
:103BB4001A1A02298FD1BDE792F8531F00298ED01B
:103BC40092F8522F022A8AD1BAE700BF68930220E2
:103BD40068A3022068B302200206604B2CD41A7832
:103BE40082421FD093F83825824251D093F8702A2C
:103BF400824253D093F8A82F824255D0584A92F863
:103C0400E014814256D092F8181A814258D092F8A2
:103C1400501F81425AD0534A92F8881481425BD093
:103C240000207047DA78002ADCD000224FF4A76124
:103C340001FB0233987870471A7880F08000824242
:103C44004FD093F83825824252D093F8702A82429A
:103C540057D093F8A82F82425CD0414A92F8E014DE
:103C6400814260D092F8181A814265D092F8501FB0
:103C740081426AD03B4A92F888148142D0D192F8AA
:103C84008B0468B392F88A24022AC9D10722CDE7AB
:103C940093F83B25002AA9D00122C7E793F8732A99
:103CA400002AA7D00222C1E793F8AB2F002AA5D09F
:103CB4000322BBE792F8E3140029A4D00422B5E759
:103CC40092F81B1A0029A2D00522AFE792F8532FCD
:103CD400002AA0D00622A9E792F88B040028D5D1A7
:103CE4007047DA78002AACD09A78022AA9D19CE7E6
:103CF40093F83B25002AA8D093F83A25022AA4D1A8
:103D0400CAE793F8732A002AA3D093F8722A022AE6
:103D14009FD18BE793F8AB2F002A9ED093F8AA2F5C
:103D2400022A9AD1C4E792F8E31400299AD092F8AF
:103D3400E214022996D1C1E792F81B1A002995D002
:103D440092F81A1A022991D1BEE792F8531F00295A
:103D540090D092F8522F022A8CD1BBE768930220AC
:103D640068A3022068B302200206614B2DD41A789E
:103D740082421FD093F83825824252D093F8702A99
:103D8400824254D093F8A82F824256D0594A92F8CE
:103D9400E014814257D092F8181A814259D092F80F
:103DA400501F81425BD0544A92F8881481425CD0FF
:103DB40000207047DA78002ADCD000224FF4A76193
:103DC40001FB023393F8340570471A7880F08000C1
:103DD40082424FD093F83825824252D093F8702A09
:103DE400824257D093F8A82F82425CD0414A92F87D
:103DF400E014814260D092F8181A814265D092F89A
:103E0400501F81426AD03C4A92F888148142CFD133
:103E140092F88B0468B392F88A24022AC8D1072244
:103E2400CCE793F83B25002AA8D00122C6E793F8F3
:103E3400732A002AA6D00222C0E793F8AB2F002AE7
:103E4400A4D00322BAE792F8E3140029A3D00422F1
:103E5400B4E792F81B1A0029A1D00522AEE792F824
:103E6400532F002A9FD00622A8E792F88B0400283B
:103E7400D5D17047DA78002AACD09A78022AA9D131
:103E84009BE793F83B25002AA8D093F83A25022A09
:103E9400A4D1CAE793F8732A002AA3D093F8722A0C
:103EA400022A9FD18AE793F8AB2F002A9ED093F879
:103EB400AA2F022A9AD1C4E792F8E31400299AD0CF
:103EC40092F8E214022996D1C1E792F81B1A00294C
:103ED40095D092F81A1A022991D1BEE792F8531F8D
:103EE400002990D092F8522F022A8CD1BBE700BF50
:103EF4006893022068A3022068B30220020610B46B
:103F0400664B35D41A78824221D093F83825824200
:103F14005BD093F8702A82425DD093F8A82F824236
:103F24005FD05F4A92F8E0C4844560D092F818CA22
:103F3400844562D092F850CF844564D0594A92F8AF
:103F440088C4844565D000205DF8044B7047DA7856
:103F5400002ADAD000224FF4A76000FB02330122CA
:103F64005DF8044B1046C3F8301583F834257047C8
:103F74001A7880F08000824252D093F83825824229
:103F840055D093F8702A82425AD093F8A82F8242CF
:103F94005FD0434A92F8E0C4844563D092F818CACB
:103FA400844568D092F850CF84456DD03D4A92F84C
:103FB40088C48445C7D192F88B040028C4D092F8F1
:103FC4008A24022ABFD10722C5E793F83B25002A99
:103FD4009FD00122BFE793F8732A002A9DD00222C2
:103FE400B9E793F8AB2F002A9BD00322B3E792F8EA
:103FF400E344002C9AD00422ADE792F81B4A002C2B
:1040040098D00522A7E792F8532F002A96D00622CB
:10401400A1E792F88B040028D5D15DF8044B7047D2
:10402400DA78002AA9D09A78022AA6D192E793F8DE
:104034003B25002AA5D093F83A25022AA1D1C8E746
:1040440093F8732A002AA0D093F8722A022A9CD1EA
:1040540081E793F8AB2F002A9BD093F8AA2F022A6A
:1040640097D1C2E792F8E344002C97D092F8E24447
:10407400022C93D1BFE792F81B4A002C92D092F8FD
:104084001A4A022C8ED1BCE792F8534F002C8DD0E3
:1040940092F8522F022A89D1B9E700BF689302200F
:1040A40068A3022068B302200206614B2DD41A785B
:1040B40082421FD093F83825824252D093F8702A56
:1040C400824254D093F8A82F824256D0594A92F88B
:1040D400E014814257D092F8181A814259D092F8CC
:1040E400501F81425BD0544A92F8881481425CD0BC
:1040F40000207047DA78002ADCD000224FF4A76150
:1041040001FB0233B3F8EC0470471A7880F08000A6
:1041140082424FD093F83825824252D093F8702AC5
:10412400824257D093F8A82F82425CD0414A92F839
:10413400E014814260D092F8181A814265D092F856
:10414400501F81426AD03C4A92F888148142CFD1F0
:1041540092F88B0468B392F88A24022AC8D1072201
:10416400CCE793F83B25002AA8D00122C6E793F8B0
:10417400732A002AA6D00222C0E793F8AB2F002AA4
:10418400A4D00322BAE792F8E3140029A3D00422AE
:10419400B4E792F81B1A0029A1D00522AEE792F8E1
:1041A400532F002A9FD00622A8E792F88B040028F8
:1041B400D5D17047DA78002AACD09A78022AA9D1EE
:1041C4009BE793F83B25002AA8D093F83A25022AC6
:1041D400A4D1CAE793F8732A002AA3D093F8722AC9
:1041E400022A9FD18AE793F8AB2F002A9ED093F836
:1041F400AA2F022A9AD1C4E792F8E31400299AD08C
:1042040092F8E214022996D1C1E792F81B1A002908
:1042140095D092F81A1A022991D1BEE792F8531F49
:10422400002990D092F8522F022A8CD1BBE700BF0C
:104234006893022068A3022068B302200306674A39
:104244002CD4137883421FD092F83835834257D048
:1042540092F8703A834259D092F8A83F83425BD0D7
:104264005F4B93F8E01481425CD093F8181A8142B2
:104274005ED093F8501F814260D05A4B93F8881453
:10428400814261D000207047D378002BDCD000201D
:104294004FF4A76303FB002008307047137880F0C5
:1042A4008000834255D092F83835834259D092F831
:1042B400703A83425FD092F8A83F834264D0484B5F
:1042C40093F8E014814269D093F8181A81426FD0B0
:1042D40093F8501F814275D0424B93F88814814261
:1042E400D0D193F88B04002832D093F88A34022B6F
:1042F40008BF0723C6D14FF4A76000FB0320CBE718
:1043040092F83B35002BA3D00120C1E792F8733A11
:10431400002BA1D00220BBE792F8AB3F002B9FD02B
:104324000320B5E793F8E31400299ED00420AFE7F7
:1043340093F81B1A00299CD00520A9E793F8533F52
:10434400002B9AD00620A3E793F88B04002843D1CE
:104354007047D378002BA6D09378022BA3D10023E7
:10436400C9E792F83B35002BA1D092F83A35022BDD
:104374009DD10123BFE792F8733A002B9BD092F8AA
:10438400723A022B97D1B6E792F8AB3F002B96D046
:1043940092F8AA3F022B92D10323ACE793F8E314DB
:1043A400002991D093F8E21402298DD10423A2E7C5
:1043B40093F81B1A00298BD093F81A1A022987D173
:1043C400052398E793F8531F002985D093F8523FAB
:1043D400022B81D106238EE7072059E76893022038
:1043E40068A3022068B302202DE9F04F0E4605466B
:1043F400974990460A688BB0964F0132964C0A60F2
:104404000DF1260209A99946387026700DF0BAFDFF
:10441400314628460FF074FEBDF826100746BDF855
:10442400240002F051FB002835D08C4CBDF8262026
:10443400BDF824108A480CF097FAE378002B00F0BA
:10444400E58094F83B35002B00F0DF8094F8733A54
:10445400002B00F07F8294F8AB3F002B00F07C82AD
:1044640004F5805393F8E324002A00F0778293F84C
:104474001B2A002A00F0748293F8533F002B00F0AB
:10448400A18204F5005393F88B34002B00F09C8236
:104494000BB0BDE8F08FBDF82610BDF8240002F083
:1044A400B5F8002848D06D4CBDF82620BDF824107E
:1044B4006C480CF059FAE37833B394F83B35002B8D
:1044C40000F0848294F8733A002B00F0818294F80F
:1044D400AB3F002B00F0D68104F5805393F8E3241E
:1044E400002A00F0778293F81B2A002A00F07482D5
:1044F40093F8533F002B00F0718204F5005393F8B6
:104504008B34002BC4D107234FF4A76202FB03F7BB
:10451400E3190021184619F0B1FF40210346467003
:1045240040F203120020E5551871A3F8EC14284654
:104534005A8002F0E7F980E0BDF82610BDF82400A7
:1045440003F048FA0390002840F09481BDF8261047
:10455400BDF8240002F07AFD82463B46BDF82620D1
:10456400BDF824104048CDF800A00CF0FDF9BAF1D4
:10457400000F7DD0394C3B46BDF82620BDF82410F1
:104584003A480CF0F1F9E3783BB394F83B35002B4F
:1045940000F0848294F8733A002B00F0898294F836
:1045A400AB3F002B00F0868204F5805393F8E3249C
:1045B400002A00F08F8293F81B2A002A00F09282CE
:1045C40093F8533F002B00F0958204F5005393F8C1
:1045D4008B34002B7FF45CAF07234FF4A76202FBFC
:1045E40003F7E3190021184619F048FF4021034658
:1045F400467040F203120020E5551871A3F8EC143C
:1046040028465A8003F0A6F817E001234FF4A76266
:1046140002FB03F7E3190021184619F02FFF40218C
:104624000346467040F203120020E5551871A3F8C2
:10463400EC1428465A8002F0E5FB314628460FF078
:10464400BFFD2846FEF724F90BB0BDE8F08F00BF8C
:1046540030910220EF4D0320F04D03206893022097
:104664000C03022040030220B0030220F8030220BE
:10467400BC4CBDF82620BDF82410BB480CF074F9DE
:10468400E378002B00F0FA8194F83B35002B00F01E
:10469400FD8194F8733A002B00F0028294F8AB3F4A
:1046A400002B00F0098204F5805B9BF8E334002BB7
:1046B40000F00A829BF81B3A002B00F00D829BF855
:1046C400533F002B00F0108204F50053059393F838
:1046D4008B34002B7FF4DCAE072306934FF4A762E0
:1046E400069B002102FB03F3E0180793049019F0E2
:1046F400C5FE01220498DFF894E2C2700022E1783A
:10470400079B94F83BC58EF800208A1A18BF012233
:10471400E5544670BCF1000F01D06146013294F8B3
:1047240073CABCF1000F02D061460132D2B294F8D0
:10473400ABCFBCF1000F02D061460132D2B29BF87C
:10474400E3C4BCF1000F02D061460132D2B29BF83F
:104754001BCABCF1000F00F097809BF8531F013275
:10476400D2B209B10132D2B2059991F88B1409B1D0
:104774000132D2B28EF80020012F00F00981022FFD
:1047840000F0B280B8F1000F00F08F8009F1FF3221
:10479400B2F5FF7F00F289800833E2180023734FDB
:1047A400404649463B7008F065F900280CBF4FF0BD
:1047B40001084FF0000800F09F813A784FF4A76396
:1047C40040210698022A03FB0043A3F8EC1483F863
:1047D40004A000F09B81032A00F0AF816449654B7B
:1047E400012A18BF194633462A466348CDF800808B
:1047F40007910CF0B9F8039B0799002B40F08881CE
:10480400314628460FF0DCFC3B78012B2ED0022BDE
:1048140000F09D81039B002B40F091812378AB42F3
:1048240000F0C78094F83835AB4200F0EF8094F87C
:10483400703AAB4200F0DF8094F8A83FAB4200F03E
:10484400CF809BF8E034AB4200F0F6809BF8183A36
:10485400AB4200F0E6809BF8503FAB4200F003818E
:10486400059B93F88834AB4200F0F1802846FEF7AC
:104874000FF80DE6BDF82620BDF824103F480CF0D3
:1048840073F863E603233FE69BF853CFBCF1000FB4
:104894007FF468AF059890F88BC4BCF1000F7FF4E7
:1048A40067AF00293FF468AF64E7039B002B3FF434
:1048B400EFAD4FF4A76732480BF0D8FF4A464146A4
:1048C40030480CF051F8032240233146069E284616
:1048D40007FB0644A270A4F8EC340FF071FC2946DF
:1048E40029480CF041F8C1E7B8F1000F24D009F1D0
:1048F400FF32B2F5FF7F1FD84FF0000C0833E218E7
:104904001A4B4946404683F800C008F0B3F898B9FA
:104914004FF4A763069A03FB024401224023A770C5
:104924002271A4F8EC34314628460FF049FC45F0D6
:104934008000FDF7ADFFABE54FF4A763069A03FBD8
:104944000244A378002BEED102220523A270A4F81E
:10495400EC34E8E7022359E6032357E6042355E63B
:10496400052353E66893022044040220F24D0320F9
:10497400F80202200403022090040220740302209F
:10498400AC050220E40502200C060220EE4D0320B3
:104994004FF4A763069A314603FB024308229F7033
:1049A400A3F8EC2428460FF00BFC2378AB427FF4E9
:1049B40039AFE378002B3FF435AF049BA3423FF4B7
:1049C40031AF65E5062321E607231FE601239BE5B6
:1049D400022399E5042397E5052395E5062393E54A
:1049E40094F8AB3F002B3FF42CAF5B4B049A9A42F4
:1049F4003FF427AF4CE594F8733A002B3FF41CAF17
:104A0400564B049A9A423FF417AF41E594F83B356C
:104A1400002B3FF40CAF524B049A9A423FF407AF79
:104A240036E59BF81B3A002B3FF415AF4D4B049A27
:104A34009A423FF410AF2BE59BF8E334002B3FF48C
:104A440005AF494B049A9A423FF400AF20E5059B19
:104A540093F88B34002B3FF409AF444B049A9A42E9
:104A64003FF404AF14E59BF8533F002B3FF4F8AE3A
:104A74003F4B049A9A423FF4F3AE09E504F5005320
:104A8400CDF818A004F5805B059327E6012306936F
:104A940004F5005304F5805B05931FE601239CE5B0
:104AA4000223069304F5005304F5805B059315E691
:104AB400022392E5032390E50323069304F50053B0
:104AC40004F5805B059309E60423069304F500537B
:104AD400059303E6042380E50523069304F50053B8
:104AE4000593FBE5052378E50623069304F50053B7
:104AF4000593F3E5062370E54FF4A76306993A7826
:104B040003FB01434FF0010A9A7057E619496AE61C
:104B140019480BF029FF41464A463B7817480BF0E9
:104B240023FF4FF4A7630321069A154803FB0243AE
:104B3400997039700BF018FF62E6124953E6294662
:104B440011480BF011FF2846FDF7A2FEA0E445F042
:104B54008000FDF79DFE9BE410A30220D89D022057
:104B6400A098022080AD022048A80220F0B70220BD
:104B7400B8B20220F0020220D40402200C05022064
:104B84004C0502201001022078050220B94A2DE9C3
:104B9400F0411368B84D013313602B780446834207
:104BA4000E4682B026D095F83835A3427FD095F8CA
:104BB400703AA34200F0878095F8A83FA34200F022
:104BC4008E80AE4B93F8E024A24200F0948093F8D8
:104BD400182AA24200F09B8093F8502FA24200F0C2
:104BE400A280A74B93F88824A24200F0A88002B0C8
:104BF400BDE8F0816B788B42D5D1EB78002BD2D015
:104C040000274FF4A76801A920460DF106020DF014
:104C1400B9F9BDF80610BDF8040008FB075801F007
:104C240053FF002800F09980204602F08BF94FF4DE
:104C3400A763002203FB07532978C3F83025A14258
:104C440083F8342500F0958095F83835A34200F0B8
:104C54009C8095F8703AA34200F0A68095F8A83F8E
:104C6400A34200F0B080854B93F8E024A24200F008
:104C7400BA8093F8182AA24200F0C48093F8502F07
:104C8400A24200F0CE807E4B93F88824A24200F02A
:104C9400D8802046FCF774F8FCF756F84FF4A76266
:104CA4000021404602B0BDE8F04119F0E7BB95F899
:104CB4003935B3427FF47BAF95F83B35002B3FF495
:104CC40076AF01279DE795F8713AB3427FF474AF4C
:104CD40095F8733A002B3FF46FAF022791E795F8EC
:104CE400A93FB3427FF46DAF95F8AB3F002B3FF47F
:104CF40068AF032785E793F8E124B2427FF467AFF6
:104D040093F8E324002A3FF462AF042779E793F889
:104D1400192AB2427FF460AF93F81B2A002A3FF4A9
:104D24005BAF05276DE793F8512FB2427FF459AF7B
:104D340093F8533F002B3FF454AF062761E793F8F1
:104D44008924B2427FF453AF93F88B340727002BA6
:104D54007FF457AF02B0BDE8F081BDF80610BDF88E
:104D6400040001F053FC002876D0204601F06CFECC
:104D74005DE7EB78002B3FF467AF6B78B3428BD3DE
:104D840095F83835A3427FF464AF95F83B35002B92
:104D94003FF45FAF95F83935B342FFF47DAF95F832
:104DA400703AA3427FF45AAF95F8733A002B3FF45C
:104DB40055AF95F8713AB342FFF46EAF95F8A83F3A
:104DC400A3427FF450AF95F8AB3F002B3FF44BAFB9
:104DD40095F8A93FB342FFF45FAF284B93F8E02462
:104DE400A2427FF446AF93F8E324002A3FF441AF94
:104DF40093F8E124B242FFF44FAF93F8182AA24289
:104E04007FF43CAF93F81B2A002A3FF437AF93F8A2
:104E1400192AB242FFF440AF93F8502FA2427FF414
:104E240032AF93F8532F002A3FF42DAF93F8513F3C
:104E3400B342FFF431AF124B93F88824A2427FF4BB
:104E440028AF93F88B24002A3FF423AF93F88934D6
:104E5400B342BFF41EAF1FE7BDF80610BDF804004F
:104E640002F0F4F800283FF4E2AE204602F080FDA0
:104E7400DDE600BF3C9102206893022068A3022073
:104E840068B302202DE9F047C84C82B02768013787
:104E940027607AB39846013B3F2B2BD8C44F044676
:104EA4003B780D468342164627D097F83835A342FF
:104EB40000F0A08097F8703AA34200F0A88097F819
:104EC400A83FA34200F0B080BA4991F8E034A3426D
:104ED40000F0B78091F8183AA34200F0BF8091F82F
:104EE400503FA34200F0C780B34B93F88824A242FA
:104EF40000F0CE8002B0BDE8F0877B788B42D4D13D
:104F0400FB78002BD1D04FF0000901A920460DF108
:104F140006020DF037F8BDF80610BDF8040002F0E3
:104F240059FD98B3DFF894A21AF8043073BB3A78A9
:104F3400A24200F0D88097F83835A34200F0E2800E
:104F440097F8703AA34200F0F58097F8A83FA3427F
:104F540000F0E480974991F8E034A34200F0F68031
:104F640091F8183AA34200F0FD8091F8503FA34213
:104F740000F01081904B93F88824A24200F0FE8048
:104F84002046FDF785FC01230AF80430BDF806101D
:104F9400BDF8040001F098FD002840F09080BDF8B1
:104FA4000610BDF8040001F031FB002840F09180A8
:104FB400BDF80610BDF8040002F048F88246002847
:104FC40073D14FF4A76303FB09F909F2EE403844A7
:104FD400424631464F4419F05FF9D7F8300520B105
:104FE40097F83435002B40F0EB80294620460FF02B
:104FF400E7F87FE797F83935AB427FF45BAF97F872
:105004003B35002B3FF456AF4FF001097DE797F88D
:10501400713AAB427FF453AF97F8733A002B3FF4E5
:105024004EAF4FF0020970E797F8A93FAB427FF407
:105034004BAF97F8AB3F002B3FF446AF4FF003095B
:1050440063E791F8E134AB427FF444AF91F8E33481
:10505400002B3FF43FAF4FF0040956E791F8193A9B
:10506400AB427FF43CAF91F81B3A002B3FF437AFCF
:105074004FF0050949E791F8513FAB427FF434AF53
:1050840091F8533F002B3FF42FAF4FF006093CE754
:1050940093F88924AA427FF42DAF93F88B344FF010
:1050A4000709002B3FF426AF2FE73146204642463E
:1050B40002F008F8294620460FF082F81AE7314634
:1050C4004246204601F00CFD294620460FF078F8B0
:1050D40010E731464246204601F0AEFA2946204602
:1050E4000FF06EF806E77A78AA427FF424AFFA78D4
:1050F400002A3FF420AF4FF4A76202FB037303229C
:105104009A703DE797F83935AB427FF419AF97F8B9
:105114003B35002B3FF414AF0123ECE797F8A93F8C
:10512400AB427FF417AF97F8AB3F002B3FF412AFBD
:105134000323E0E797F8713AAB427FF406AF97F8A0
:10514400733A002B3FF401AF0223D4E791F8E13422
:10515400AB427FF405AF91F8E334002B3FF400AF8A
:105164000423C8E791F8193AAB427FF4FEAE91F8F4
:105174001B3A002B3FF4F9AE0523BCE793F88924CE
:10518400AA427FF4FDAE93F88B34002B3FF4F8AEC3
:105194000723B0E791F8513FAB427FF4EBAE91F8AF
:1051A400533F002B3FF4E6AE0623A4E734910220DC
:1051B4006893022068A3022068B30220B8BD0220CD
:1051C4003146084E424633680133336019F064F8BF
:1051D4005146204687F834A5FBF736FEC7F830A5BC
:1051E40003E700BF3891022008B54FF4A262002102
:1051F400024819F043F9012008BD00BFD87D022000
:1052040004281ED84FF4A272431E02FB03F370B5A8
:105214000C4E0546F25C1E445AB10B4B4BB10024B4
:1052240021462846FBF724FB01343378E1B28B4254
:10523400F7D83046BDE870404FF4A272002119F04F
:105244001DB97047D87D02207104002004295AD862
:105254002DE9F04F1546127983B0012A4FD91F4624
:10526400AB790E465D2B45D0472B4ED06979582932
:1052740045D1422B43D104214FF4A27B731E0BFB77
:1052840003FBDFF8E490019319F80B30012B57D896
:1052940003EB83030BEB431BAB78CB448BF8041079
:1052A4008BF81430002F3DD04FF0000A2C46D04626
:1052B40006E0217888440C44524533DDB84531DAA0
:1052C40061780529F5D1214630460DF085FF002887
:1052D40042D0A278D3091DD18BF81620A288C2F33C
:1052E4000A02ABF81A2022780AF1010A9044144405
:1052F4002A79E1E7EB79812B2AD0012B2AD00020EF
:1053040003B0BDE8F08F00207047EB79D02BF6D1C5
:105314000121B1E78BF81520A288C2F30A02ABF889
:105324001820E0E74FF4A2730120019A03FB02FA6C
:1053340019F80A30034409F80A3003B0BDE8F08FC5
:105344004FF0E023D3F8F03DDA07D8D500BED6E716
:10535400022191E703218FE74FF0E023D3F8F03DDA
:10536400DB07CCD500BECBE7D87D02204FF4A27377
:105374002DE9F043461E03FB06F601EB8104DFF83A
:105384004C9006EB44144C44884683B0617D074638
:105394000DF09EFE054618B9284603B0BDE8F0831B
:1053A400A022002502FB08661C36617D238B38464B
:1053B400CDE9005509EB06020DF0CEFE05460028A6
:1053C400EAD13846617D0DF0A9FEE5E7D87D0220DB
:1053D4002DE9F0474FF4A2749846461E04FB06F6E6
:1053E400DFF8749001EB810406EB44144C44638BA6
:1053F40082B043450CD24FF0E023D3F8F03DDB07F5
:1054040004D40025284602B0BDE8F08700BEF8E7C2
:105414000D46A17D074692460DF05AFE0028F0D0B5
:10542400A02303FB056500265C354D4451464246E6
:10543400284618F031FF2A46A17D43463846CDE977
:1054440000660DF089FE05460028DBD13846A17DB3
:105454000DF064FED6E700BFD87D0220F0B50C46FF
:105464001746064683B001AA0DF1060120460CF04A
:1054740089FD052339462046384AFFF7A9FFB57C44
:1054840004E000214FF0FF300DF0CAF82946204611
:105494000DF0D8FE0028F4D1132339462046304AB3
:1054A400FFF796FFB57C04E000214FF0FF300DF0CC
:1054B400B7F8294620460DF0C5FE0028F4D140F285
:1054C4005E42BDF80630934205D040F66F629342C7
:1054D4001CD003B0F0BDBDF80430B3F5306FF8D183
:1054E4000623394620461F4AFFF772FFB57C04E0C5
:1054F40000214FF0FF300DF093F8294620460DF0BF
:10550400A1FE0028F4D1BDF80630DEE707233946B2
:105514002046154AFFF75CFFB57C04E000214FF0FC
:10552400FF300DF07DF8294620460DF08BFE002853
:10553400F4D10623394620460C4AFFF749FFB57CCF
:1055440004E000214FF0FF300DF06AF829462046B0
:105554000DF078FE0028F4D103B0F0BDAC060220B3
:10556400B406022074060220A40602209C0602202F
:105574002DE9F04F4FF4A275C64C471E064605FBB5
:105584000740457D85B08D424FEAD11E00F0D6819B
:10559400857D8D4200F0D28190F8B5508D4200F0A7
:1055A400D28190F8B600884200F0CD81FF2549F6FB
:1055B400607CAA464FF4A27808FB07F005EB85014E
:1055C40000EB4111844421440CF104004FEA8509A5
:1055D40081F89C20C1F8A0302044002A40F05E816C
:1055E400BEF1000F10D1AC4A42B10CF15C0C514633
:1055F40030469BB204EB0C0200E000BF4FF0010AFE
:10560400504605B0BDE8F08F0CF1060B91F804800C
:1056140004EB0B030CF11C0C0393B8F1030F04EB24
:105624000C03029300F05A81B8F1020F00F090814C
:10563400B8F1010F00F0D882B8F1040F40F05481A2
:1056440093F801C0BCF1140F40F04E81039B44F861
:105654000B205A609A60029B5A88D30705D5B1F88B
:1056640006C04CF0010CA1F806C093070ED54FF408
:10567400A27107FB01F109EB050C01EB4C1121446C
:10568400B1F806C04CF0020CA1F806C051070ED5C3
:105694004FF4A27107FB01F109EB050C01EB4C116E
:1056A4002144B1F806C04CF0040CA1F806C013075D
:1056B4000ED54FF4A27107FB01F109EB050C01EBC8
:1056C4004C112144B1F806C04CF0080CA1F806C0F6
:1056D400D1060ED54FF4A27107FB01F109EB050CBD
:1056E40001EB4C112144B1F806C04CF0100CA1F8A8
:1056F40006C093060ED54FF4A27107FB01F109EB26
:10570400050C01EB4C112144B1F806C04CF0200CFF
:10571400A1F806C051060ED54FF4A27107FB01F1A2
:1057240009EB050C01EB4C112144B1F806C04CF017
:10573400400CA1F806C013060CD54FF4A27207FB67
:1057440002F209EB050102EB41122244D18841F037
:105754008001D180029B1A79202A0CD94FF4A272BD
:1057640007FB02F209EB050102EB41122244D18846
:1057740041F48051D180029B5A79202A0CD94FF4EC
:10578400A27207FB02F209EB050102EB411222446B
:10579400D18841F40051D180029B9A79202A0CD9F6
:1057A4004FF4A27207FB02F209EB050102EB41126E
:1057B4002244D18841F48041D180029BDA79202AA5
:1057C4000ED94FF4A27207FB02F209EB050102EBBA
:1057D40041122244D1886FEA41416FEA5141D1809C
:1057E400029B1A7A202A0CD94FF4A27207FB02F208
:1057F40009EB050102EB41122244D18841F4007106
:10580400D180029B5A7A202A0CD94FF4A27207FB4A
:1058140002F209EB050102EB41122244D18841F462
:105824008071D1804FF4A272012107FB02F2029B26
:1058340009EB050E93F80AC002EB4E12224482F8DB
:1058440008C093F80BC082F809C0B3F80CC0A2F8E2
:105854000AC0B3F80EC0A2F80CC0B3F810C0A2F886
:105864000EC05B8AD174138251464FF0010A02467E
:10587400A0233046FBF716F84FF4A27200235046DB
:1058840002FB07F74D4407EB45152C44E37405B0C0
:10589400BDE8F08FD87D022000000000BEF1000FAB
:1058A40010D1D048A0B151464FF0000A0CF15C0C65
:1058B40030469BB204EB0C0200E000BF504605B03A
:1058C400BDE8F08F0246A02351463046FAF7EAFFBE
:1058D4004FF0000A504605B0BDE8F08F93F801C0C0
:1058E400BCF1140F00F095814FF4A27207FB02F291
:1058F40009EB050802EB4818A04498F813B0BBF173
:10590400000FB1D1304698F815100DF0E1FB824636
:1059140000283FF473AECDE900BB3046029AB8F8D4
:10592400183098F815100DF017FC00287FF466AEB7
:10593400304698F815100DF0F1FB61E64FF0000CBD
:105944006546E24636E601254FF0A00CAA4631E64C
:1059540014F80CC01CF0080F93F801C040F0338118
:105964001CF0010FC0D0029B5A79132ABCD100222B
:10597400039B44F80B205A609A60029BDA88B3F9BF
:105984000610D3070ED54FF4A27C0CFB07FC09EBE1
:10599400050E0CEB4E1CA444BCF806E04EF0010EC0
:1059A400ACF806E093070ED54FF4A27C0CFB07FC81
:1059B40009EB050E0CEB4E1CA444BCF806E04EF0BB
:1059C400020EACF806E053070ED54FF4A27C0CFB94
:1059D40007FC09EB050E0CEB4E1CA444BCF806E0D6
:1059E4004EF0040EACF806E013070ED54FF4A27C7B
:1059F4000CFB07FC09EB050E0CEB4E1CA444BCF895
:105A040006E04EF0080EACF806E0D3060ED54FF4CF
:105A1400A27C0CFB07FC09EB050E0CEB4E1CA4440A
:105A2400BCF806E04EF0100EACF806E093060ED576
:105A34004FF4A27C0CFB07FC09EB050E0CEB4E1C8F
:105A4400A444BCF806E04EF0200EACF806E0530681
:105A54000ED54FF4A27C0CFB07FC09EB050E0CEBF6
:105A64004E1CA444BCF806E04EF0400EACF806E030
:105A740013060ED54FF4A27C0CFB07FC09EB050EB4
:105A84000CEB4E1CA444BCF806E04EF0800EACF8BF
:105A940006E0D3050ED54FF4A27C0CFB07FC09EB02
:105AA400050E0CEB4E1CA444BCF806E04EF4807EBC
:105AB400ACF806E093050ED54FF4A27C0CFB07FC72
:105AC40009EB050E0CEB4E1CA444BCF806E04EF4A6
