:020000041000EA
:1000000000B5324B212058609868022188439860DF
:10001000D860186158612E4B002199600221596106
:100020000121F02299502B49196001219960352056
:1000300000F044F80222904214D00621196600F024
:1000400034F8196E01211966002018661A6600F04E
:100050002CF8196E196E196E052000F02FF8012189
:100060000842F9D1002199601B49196000215960AB
:100070001A491B48016001219960EB211966A021F2
:10008000196600F012F800219960164914480160C1
:100090000121996001BC002800D000471248134993
:1000A000086003C880F30888084703B5996A0420EC
:1000B0000142FBD001200142F8D103BD02B5186610
:1000C0001866FFF7F2FF186E186E02BD00000240BE
:1000D000000000180000070000035F00212200005C
:1000E000F4000018222000A00001001008ED00E03C
:1000F00000000000000000000000000074B24E7A12
:1001000000200420F7010010CB010010CD010010E9
:10011000C9010010C9010010C9010010C901001077
:10012000C9010010C9010010C9010010CF01001061
:10013000C9010010C9010010D1010010D301001045
:10014000C1010010C1010010C1010010C101001067
:10015000C1010010C1010010C1010010C101001057
:10016000C1010010C1010010C1010010C101001047
:10017000C1010010C1010010C1010010C101001037
:10018000C1010010C1010010C1010010C101001027
:10019000C1010010C1010010C1010010C101001017
:1001A000C1010010C1010010C1010010C101001007
:1001B000C1010010C1010010C1010010C1010010F7
:1001C000EFF30580103800BE00BE00BE00BE00BECA
:1001D00000BE00BEF2EB8871D4050010F0050010DF
:1001E0003802001090A31AE721482249086006C887
:1001F00081F30888104720480068002801D01C4877
:10020000F3E70DA40ECC002902D000F012F8F9E7B4
:100210001A491B4A002000E001C19142FCD1194952
:100220008847194988471949884700BEFDE701C931
:1002300001C29A42FBD37047F0050010C0000020B5
:10024000900D0220C0120210900D022000840220A6
:1002500030890210000004200000042030890210C0
:10026000001004200010042000000000704700006F
:100270000000000008ED00E0000000D00084022033
:10028000247203200D1301208D010020051301208D
:1002900080030181B0B0AB1000000000A96601101E
:1002A000B0B0AA00FFFF01080E041C00180E0000E9
:1002B00095660110B0B0AA00FFFF01080E041C00F3
:1002C000180E000080010181B0B0AB1000000000EA
:1002D00075660110B0B0AA00FFFF0100F080018137
:1002E000B0AB08B1000000005D660110F0801201A3
:1002F000B0B0B0ABFF1019011026C20700008A0889
:1003000004C00901D408040000010000000000003E
:1003100035660110B0B0AA00FF1019010C020608E2
:10032000010C0410051E08000001007F00007D0084
:1003300000000000000000000D660110B0AA0100DE
:10034000FF10290118323400007204AA01037C2E28
:100350000000C60118EE0100E8010E0000020001D5
:100360007D0000000000000018310210D965011066
:1003700010800101B0B0B0ABFFFF0108224C6E004D
:1003800074040000C1650110F0800401B0B0B0AB8E
:10039000FF1019010F480A520196014AE60100EECA
:1003A00001040000010000000000000074B201819F
:1003B000B0AB30800000000080080181B0B0ABF02D
:1003C000000000003F020181B0AB3080000000005F
:0C03D00080060181B0B0ABF0000000001E
:1003DC0090560110B0B0A880C0560110010000006A
:1003EC003C570110B0AB02806C57011098FEFF7F98
:1003FC0000580110AB08B1801C580110010000001E
:10040C00285D0110B0B0A880405D011084FEFF7F14
:10041C00685D011090FEFF7F905D0110B0B0A88068
:10042C00C45D011001000000FC5D0110B0A9048046
:10043C00285E011001000000C85E0110AB08B180FD
:10044C00E45E011001000000306001106CFEFF7FC3
:10045C00E860011001000000B061011068FEFF7F30
:10046C001C620110B0B0A880A46201100100000051
:10047C00D46201105CFEFF7FE0630110B0B0A88075
:10048C0020640110AB08B180B064011050FEFF7FF6
:10049C007069011070FEFF7F90690110010000006F
:1004AC0098690110B0B0A880A86901100100000083
:1004BC00B8690110B0B0A880E46901100100000017
:1004CC00286A0110B0B0AA80546A0110B0B0A8809C
:1004DC00BC6A011058FEFF7FC86B011001000000C0
:1004EC00D46C01107CFEFF7F546D0110B0B0A8805D
:1004FC00D86D01100100000018D601107CFEFF7FA2
:10050C0010D7011001000000E0D70110B0A9028043
:10051C0074D80110B0B0A880C8D801100100000038
:10052C00D4D80110B0B0AA8008D9011074FEFF7F96
:10053C00D0D9011001000000CCD90110AA3F39809C
:10054C0018DA0110B0B0A88024DA0110B0B0AA807B
:10055C0064DA0110B0B0A88078DA01100100000054
:10056C0074DA0110B0B0A8807CDA01100100000030
:10057C000CDB0110AA0FB28074DB011030FEFF7F80
:10058C0058DE0110B0B0A88074DE01102CFEFF7F85
:10059C00D4E001100100000044E20110008404804A
:1005AC0054E20110B0B0A88054E2011018FEFF7F95
:1005BC003CE50110008404805CE50110B0B0A8801B
:0805CC0074E5011001000000BC
:1005D400202F02202C2F0220382F0220442F02200B
:0C05E400502F02205C2F0220682F022004
:1005F000F8B5C04610B5064C2378002B07D1054B43
:10060000002B02D0044800E000BF0123237010BD7E
:10061000B887022000000000900D0220044B10B5A6
:10062000002B03D00349044800E000BF10BDC046C2
:1006300000000000BC870220900D022010B50CF0D5
:10064000D3FB002807D0074B01301A680649FF305A
:100650000FF070FD10BD054811F0A8FA01204042CE
:1006600011F0E8F87C6902207C5902205411022024
:1006700070B5FFF7E3FF01200CF0E4FB0EF03EF84D
:1006800004000D0003E0200029000DF025FF00F01C
:1006900017FB00F077FB0CF09DFDFA2000210CF019
:1006A0003DFCFA220023A4185D41002DEBDA012461
:1006B000014D6442E7E7C046FFFFFF7FF0B5DE462D
:1006C00057464E464546E0B500219DB0002015F046
:1006D000C3FA002808D1012040421DB0F0BCBB463F
:1006E000B246A946A046F0BD06A802F017FD06A82E
:1006F00002F04AFD05AC06A802F000FF23004848BE
:1007000004AA03A90EF066FB002800D07DE0872133
:100710004448490011F0D4FA00F0D2FA00F0ECFAA3
:1007200000F0CEFA06A900F011FB01F0A9FB01F0E0
:10073000ABFA01F0A5FB06A900F004FC3A4811F061
:1007400015FB01F09DFB00F003FC0DF0D7FF374BCC
:1007500000909946364B01919A46364B9B46402372
:1007600098460DF0CBFF06000F0006E00CF03CFDB4
:10077000002809D120780CF01BFD00F0A1FA21001F
:1007800000F0E6FA0028F1D14B4642465B7C1A4263
:100790000AD053461B6864215D1C534628001D6027
:1007A0000EF0C0FD01292BD000F01AF900F058F925
:1007B0000098019932003B00121A8B41002B03DC98
:1007C000CFD11D498A42CCD901200021404213F0EB
:1007D0000DF807F051FA01F053FB00F0C3FB01F0F4
:1007E0004FFB5B469A68DB6801F054F901F048FB67
:1007F00001F080FF06A802F081FE00960197AEE7A7
:1008000029000E4811F05CFACEE704990398059A86
:100810000EF000FA87210A48490011F051FA7BE7EF
:10082000B01E04008C1102204101002068E102206A
:100830007C980220208402200F270000A8110220AB
:100840007011022001230370004870475C180220D9
:10085000F0B5C64600B513780400013BDBB20E00CC
:10086000150088B0032B61D83B4A9B009958330090
:1008700022003A4811F024FA2900200006F06CF812
:10088000374A13680133136000F0CAFA354F380055
:1008900007F028FD344B0A2200931421022338006C
:1008A00007F028FD2B78032B4BD0022B4BD0012BCC
:1008B0003ED02E4B0093232201230F21380007F056
:1008C00019FD03AB9846AB7B1421294A019340469E
:1008D0002300009610F01AFF434632220A21380006
:1008E0000093012307F006FD380007F035FD21488D
:1008F0000DF05AFE2B78022B02D1AB7B002B0DD0D2
:10090000012300223100200005F0E4FE0123002233
:10091000009331000023200005F06AFF3100200021
:1009200004F0B8FF08B080BCB846F0BD12499EE79D
:10093000124B2322009314210123380007F0DAFC24
:10094000BFE70F4BB6E70F4B232200930A21012389
:10095000380007F0CFFCB4E7C0120220E8110220F3
:10096000F071032070B502201812022048120220F4
:1009700054120220B80B0000E01102203C120220A9
:10098000201202202C12022010B504000A000100DF
:10099000074811F095F9200005F0EAFF054A1368B1
:1009A000002B01DD013B136000F056FA10BDC0467C
:1009B00064120220F071032070B50D001100074A87
:1009C00004001368013313600123CB7305F0C4FFE7
:1009D0002900200004F05EFF70BDC0462C88022074
:1009E000F8B51C4D2B78BFF35B8FDB0702D51A4C93
:1009F0002000F8BD280015F0D1FA174C0028F7D0D8
:100A00000022002322606360144A144B0F26A26167
:100A1000E3611FF01DFAC117090F40183040411A59
:100A20000E4802F02FFBA06107001FF011FAC31758
:100A30001B0FC1183140C91A380002F023FBE061D6
:100A40000DF05CFE2061A06061612800E16015F09E
:100A5000C1FACDE7D8870220008402203333333334
:100A6000F8B504000DF04AFE256806000F00002DC1
:100A70000ED0EB17E81858400200C317A068E168D1
:100A800012184B41002B32DB921BBB41002B1CDBAD
:100A90006568002D0ED0EB17E81858400200C31708
:100AA0002069616912184B41002B18DB921BBB4176
:100AB000002B00DBF8BD012126616761E069002D94
:100AC00021DD02F0DDFAE061F4E70121A660E760D4
:100AD000A069002D13DD02F0D3FAA061D8E701224E
:100AE0000B4B5242921BBB41002BE3DAE3E701229E
:100AF000074B5242921BBB41002BC9DAE5E702F0DB
:100B0000C1FAA061C4E702F0BDFAE061D2E7C046D5
:100B1000FFFFFF7F70B506000D001400002904D10F
:100B20000160002C15D1746070BD08000EF0FCFE51
:100B300002000B00002018490EF069FE0EF00CFFB9
:100B4000002D1DDD154B984216DC154B3360002C33
:100B5000E9D020000EF0E8FE02000B0000200E4954
:100B60000EF055FE0EF0F8FE002C0FDD0B4B9842F8
:100B700004DC0B4B7360D7E73060D2E77060D3E7DB
:100B8000084B9842F8DB084B3360CAE7054B9842A4
:100B9000F4DB054B7360C7E7006AE8408902000098
:100BA0008A02000077FDFFFF76FDFFFFF8B547469C
:100BB000CE4680B53E4F1D003B781600BFF35B8FDD
:100BC000DB070DD53B4CA36933603B78BFF35B8FEC
:100BD000DB073DD5E3692B60C0BCB946B046F8BD24
:100BE000380015F0DBF9334C0028ECD0002200234C
:100BF00022606360304A304BA261E3611FF028F944
:100C00000F23C117090F40181840411A2A48984667
:100C100002F038FAA06181461FF01AF94246C31764
:100C20001B0FC1181140C91A484602F02BFAE061A7
:100C30000DF064FD2061A06061613800E16015F095
:100C4000C9F9A36933603B78BFF35B8FDB07C1D47D
:100C5000380015F0A3F90028BCD000220023226040
:100C60006360154A144B0F26A261E3611FF0F0F890
:100C7000C117090F40183040411A0F4802F002FA1C
:100C8000A06180461FF0E4F8C3171B0FC118314064
:100C9000C91A404602F0F6F9E0610DF02FFD20611F
:100CA000A06061613800E16015F094F992E7C046F8
:100CB000D887022000840220333333337047C04684
:100CC00010B50A4C2378BFF35B8FDB0701D50848CA
:100CD00010BD200015F062F90028F8D005481EF07C
:100CE000D5F9200015F076F9F1E7C046D487022047
:100CF000809802208D070020962110B5104C090124
:100D000020000DF03FFD022104200CF063FD0221C4
:100D100005200CF05FFD20000A490DF0C1FDC02246
:100D2000236B12021340084A20001360082100239D
:100D300001220DF00FFE012120000DF047FE10BD35
:100D400000800340841E0000309003400160704723
:100D50000B4A10B593690024DB0601D5200010BDB5
:100D6000103493691C42FCD112680124D2B20A707B
:100D700000680028F2D0002102F090FDEEE7C046A6
:100D8000008003400120024B9B695B099843704738
:100D90000080034070B5174D04002B78BFF35B8FC4
:100DA000DB071BD5144B02229B5EA3420ED02022F0
:100DB00012498B691A42FCD1114B0C60186800284B
:100DC00003D02200012102F069FD70BD20210B4AF1
:100DD00093691942FCD10D231360E8E7280015F050
:100DE000DDF80028DED007481EF050F9280015F085
:100DF000F1F8D7E7D4870220EC710320008003408C
:100E0000809802208D070020044B10B5D868002878
:100E100003D05969091A0FF0A3F910BD8498022074
:100E2000084B10B5186800280AD0074B074A1B6802
:100E3000126807499B18074A0968126802F006FA07
:100E400010BDC0463488022054980220F07103205F
:100E500050980220EC870220084B10B51868002833
:100E60000AD0074B074A1B68126807499B18074AB4
:100E70000968126802F0EAF910BDC0463488022001
:100E800054980220F071032050980220EC87022031
:100E900070B5040002F0C8FF012842D0022816D025
:100EA000032818D1214A224E1368013B1360B3680E
:100EB000002B14D11F4B1868002807D01B4B1E4A6B
:100EC0001E491B681268096802F0C0F970BD1A4A11
:100ED0001368013B1360164EB368002BEAD0351D32
:100EE00003E01D009B68002B05D01A699442F8DDD1
:100EF000DB68002BF9D1331D9D42DBD02B699C426E
:100F0000D8DB6869002801D00FF026F9311D2800D0
:100F100015F02EFA18210FF023F97369013B736164
:100F2000C8E7064A1368013B1360D4E754980220CF
:100F30003888022034880220EC8702205098022052
:100F40007047C046014B19607047C0463488022084
:100F500010B5034B0121186802F09EF910BDC04680
:100F600034880220F0B5DE4657464E464546E0B589
:100F7000B94B0600DF689B46043389B09F4209D114
:100F800063E1380015F000F95B460433070098422E
:100F900000D15AE13C7C7D69200002F045FF012828
:100FA000EFD1200002F048FE0028EAD0200003F034
:100FB0002BF80028E5D111232A7813400293AB784F
:100FC000452B01D100F04EFCE978452900D1A4E27F
:100FD0002979452900D1A0E26979452900D19CE20F
:100FE000A979452900D198E2E979452900D194E20F
:100FF00000209A490870442111408A462E2B01D1C5
:1010000000F01CFCE9782E2901D100F04EFC2A7971
:101010002E2A00D185E36A792E2A00D181E3AA79AC
:101020002E2A00D17DE3EA792E2A00D179E300202F
:101030008B4A10702D2B01D100F09BFC06AB98461B
:101040002D2900D19FE32B792D2B00D19BE36B79C8
:101050002D2B00D197E3AB792D2B01D100F057FC5C
:10106000EB792D2B00D18EE300227E4B1A70AA78EB
:10107000412A00D139E3EB78412B00D1DFE1297916
:10108000412900D1DBE16979412900D1D7E1A97972
:10109000412900D1D3E1E979412900D1CFE10020F4
:1010A00071490870442A01D100F041FC442B01D160
:1010B00000F01CFC2979442900D106E36979442910
:1010C00000D102E3A979442900D1FEE2E97944295B
:1010D00000D1FAE2002065490870422A00D1E9E215
:1010E000422B00D1FCE12A79422A00D1D4E26A796C
:1010F000422A00D1D0E2AA79422A00D1CCE2EA7990
:10110000422A00D1C8E20021594A1170AA78432A24
:1011100001D100F01DFC432B00D185E12B79432B3D
:1011200000D181E16B79432B00D17DE1AB79432B79
:1011300000D179E1EB79432B00D175E100214D4AD3
:10114000AB781170392B00D19CE0EB78392B00D1B2
:1011500098E02B79392B00D194E06B79392B00D1B1
:1011600090E0AB79392B00D18CE0EB79392B00D1B1
:1011700088E00023404A1370404A1370029B002B02
:1011800000D0ACE00223EB56AA78002B00DC7FE213
:101190005346002B0ED0382A00D1F7E12F2A00D178
:1011A000C1E3302A01D100F0E0FB13002D3B012BFD
:1011B00000D8D6E3324B9B5C424613700322AA56FA
:1011C000EB78002A00DC5FE25246002A00D0E5E11D
:1011D0002B4AD35C424653700422AA562B79002A2C
:1011E00000DC4DE25246002A00D0EDE1244AD35CF7
:1011F000424693700522AA566B79002A00DC3BE236
:101200005246002A00D0F5E11D4AD35C4246D37015
:101210000622AA56AB79002A00DC29E25246002AAF
:1012200000D0FDE1164AD35C424613710722AA564C
:10123000EB79002A00DC17E25246002A00D005E2D2
:101240000F4AD35C424653716FE009B0F0BCBB4615
:10125000B246A946A046F0BD388802200872032095
:1012600005720320067203200B720320077203200D
:1012700003720320047203200A7203200972032000
:1012800080690220B34B1A78002A00D076E7B24872
:101290000278914601224946514001700A0001211D
:1012A0001970531E9A41434652001A700023A946F2
:1012B00025001C00A9480170012301934346002228
:1012C000009321000223280014F0FEF8002803D127
:1012D0000134E4B2032CEFD12C004D464EE7082137
:1012E0008C460021AC44604689465146A446AA4635
:1012F000AB1C424604000D00002018561978002847
:1013000000DC88E0002D7BD1442900D183E0432913
:1013100000D180E042297ED09148415C11700133B8
:101320000132A342E8D164465546F16833695B1A3D
:10133000012B45D9434618785B789C4643469B78F9
:1013400099464346DB789A4643461B7902934346C7
:101350005B799846814B1A780123002A00D116E365
:101360005246AA464D46B94647460392A0466446B1
:10137000BC4606E0CA54F16832690133521A9A42F7
:101380001BD901223A2BF5D08342F3D0A342F1D0EE
:10139000AB42EFD0039FBB42ECD0029FBB42E9D0EF
:1013A00062469A1A17007A427A41D2B2CA54F16858
:1013B00032690133521A9A42E3D844464F465546A1
:1013C00001222A202B785B1013400B542B78F168F4
:1013D0005B111A403623CA542A78253B13405A1E03
:1013E0009341F2682000537744232A78F168134030
:1013F0005A1E934138228B54290002F0F9FEC0E5B1
:1014000038290ED02F2909D0302907D008002D38CF
:10141000012800D978E74946117080E7363111700C
:101420007DE71A3111707AE7029B002B00D185E627
:101430004C4B99461B78002B65D0AB7882E602991D
:10144000002917D1002048490870442A00D02DE611
:101450000021464A1170422B00D044E60023AA78AE
:1014600043490B70432A00D102E32B79432B00D070
:1014700058E663E63C4B03931B78002B04D0442AC8
:1014800000D158E2EB7811E63A4B9946180006F085
:1014900029FF394B0F220F2148460093022306F003
:1014A00029FF364B23221E2148460093012306F0D4
:1014B00021FF334B32220F2148460093012306F0CF
:1014C00019FF484606F048FF14200BF071FEFA2081
:1014D00040000DF069F80123039A1370AA78CEE753
:1014E000029B002BBAD0224B99461B78002B00D1CF
:1014F00074E1AB78432B00D0E5E01A4B99461B789A
:10150000002B00D021E61F4B0121186801F0E2FFFB
:1015100001234A461370AB7814E60299002900D1E2
:1015200066E5194988460978002900D063E5154B1E
:101530001B681800994601F0A9FE41424141484606
:10154000C9B201F0A9FE012342461370AB782A7894
:1015500051E5C0460A72032002720320097203207B
:1015600080690220047203200B720320077203209B
:101570000372032070B50220D0120220DC12022078
:10158000E4120220348802200872032052234246CB
:1015900013700322AA56EB78002A75DD382B00D190
:1015A00094E12F2B00D145E1302B00D142E11A000C
:1015B0002D3A012A00D90BE600234246537004223B
:1015C000AA562B79002A5BDD382B00D182E12F2B24
:1015D00000D123E1302B00D120E11A002D3A012A5D
:1015E00000D903E60023424693700522AA566B7980
:1015F000002A41DD382B00D174E12F2B00D111E1FD
:10160000302B00D10EE11A002D3A012A00D9FBE55A
:1016100000234246D3700622AA56AB79002A27DD62
:10162000382B00D14EE12F2B00D1FFE0302B00D121
:10163000FCE01A002D3A012A00D9F3E500234246C6
:1016400013710722AA56EB79002A0DDD382B00D141
:1016500044E12F2B00D162E1302B00D174E11A005C
:101660002D3A012A00D9EBE50023424653715CE68E
:10167000002342461371D9E500234246D370C7E5E3
:10168000002342469370B5E5002342465370A3E51C
:101690004346029A1A7091E5029A002A00D022E786
:1016A0000021AA78CD480170432A00D033E5CC4B05
:1016B00019704AE5029A002A10D0C84B99461B7847
:1016C000002B00D18AE0EB7825E5029900291ED194
:1016D0000021C4480170422A00D001E50022BF4920
:1016E0000A70432B00D019E528E5029B002B00D19E
:1016F000A3E1BD4B03931B78002B00D1C4E6E9782E
:101700000B00442944D02979442900D0D6E4B54BB4
:1017100099461B78002B40D0422ACED0E9780B00A6
:10172000DEE45246002A0DD10020B04A10702D2B65
:1017300000D197E12D2900D194E100239A4606AB10
:10174000984680E4A94A06A9914612788846002A5C
:1017500055D02D2B00D111E1E9782D2900D072E46C
:10176000A34B99461B78002B00D080E44346A14848
:1017700005AA04A90DF02EFB002800D06CE101237E
:101780004A46137073E45346002B00D16CE4E7E73C
:10179000944B99461B78002BC1D1974806F0A2FDC7
:1017A000964B14221E2194480093022306F0A2FDBA
:1017B000934B2D22142190480093012306F09AFDAB
:1017C0008D4806F0C9FDFA2040000CF0EDFE0BF04C
:1017D0009FFB4A4601231370AA789DE7894B00219D
:1017E000186801F077FE01234A46137081E67F4BAB
:1017F00006AA99461B789046002B00D023E406AB3E
:10180000814805AA04A998460DF0E4FA002800D002
:101810001CE101234A461370AB789AE742463633FF
:101820009370E2E642463633D370F4E642463633EE
:10183000137106E7424636335370C0E6002900D1E3
:10184000E6E06A4B99461B78002BD8D0EB782D2B1D
:1018500000D10AE12B792D2B00D106E106AB984689
:10186000FFF7F5FB0299002901D1FFF7C1FB67499A
:1018700088460978002900D159E6442111408A465A
:10188000E9782E2901D0FFF7C2FB5346002BAED1D9
:101890005246564B1A702B792D2B00D1E2E00023D3
:1018A0009A4606AB9846FFF7D2FB5246002A00D074
:1018B00048E751464D4A11702D2BECD106AB9846A6
:1018C000FFF7D2FB42461A331371BAE642461A3387
:1018D000537074E642461A33937086E652234246AA
:1018E000537122E542461A33D37094E6029B002BD3
:1018F00000D00CE700213B4B1970422A00D1BDE01B
:101900002B79422B00D1B7E04423FFF7F0FB53467D
:10191000002B00D024E700239A46FFF7A5FB6523A0
:101920004246537101E565234246137031E6029A3F
:10193000002A00D18CE52B4B99461B78002B00D157
:101940002BE7EB78FFF7CCFB662342465371ECE4C0
:10195000029B002B00D0D0E51A00214B1A70FFF734
:10196000F4FB4346029A1A7013E66623424613704C
:101970000FE65346002BA1D006AB98461C4B994668
:101980001B78002B00D1F1E6AA78FFF774FB6346C1
:101990000394AC461C00013206E08B54F1683369B5
:1019A00001325B1A9A4214D200233A2AF5D09042AF
:1019B00012D0944210D091450ED092450CD0029B8B
:1019C000934209D043469B1A1D006B426B41DBB228
:1019D000E3E76546039CF3E40123DEE7037203209B
:1019E00004720320077203200B7203200572032088
:1019F00006720320F049020070B50220EC120220AA
:101A0000F412022034880220B01E04000872032061
:101A10001D4B1970EB782D2B00D14FE72B792D2B17
:101A200000D14BE76B792D2B00D147E7AB792D2BFC
:101A300026D006AB9846FFF713FB1900134B19701D
:101A4000EB78442B01D0FFF735FB53E7069A059955
:101A500004980DF0DFF8DCE6069A059904980DF07D
:101A6000D9F88CE600239A4628E706AB984677E635
:101A7000074A1370FFF769FB442311E644232DE660
:101A800006AB984647E7C046057203200B72032059
:101A900004720320F0B54E464546DE465746E0B593
:101AA000744B8046DC689946043385B09C423DD037
:101AB00000239B469A4607E0200014F065FB4B4646
:101AC00004330400984234D027696669FDB22800C7
:101AD00002F0AAF90228EFD1280002F0ADF80028A0
:101AE000EAD0280002F090FA0028E5D1280002F0A0
:101AF0006DFD7F2F4FDD0120B1783278737830563D
:101B0000FF2900D1A3E04BB29B464346FD219B69D0
:101B100082460B405000FB3901400B43FE219207E7
:101B2000D20F0B4013434246936136E000239B469D
:101B30009A46514B186801F09BFB0DF0F5FE4F4A99
:101B40004F4B0DF082FE00224E4B0DF057FE0D0064
:101B50000400FEF745FF060058460DF0E5FE2200A2
:101B60002B000DF072FE0DF0F7FE070050460DF051
:101B7000DBFE22002B000DF068FE0DF0EDFE3A00BA
:101B800001003000FEF7C6FF05B0F0BCBB46B24610
:101B9000A946A046F0BD071E04D13100280002F07E
:101BA00027FB89E70378002B61D0002300220394F0
:101BB00001921C00029506E0012B1FD001343B78F6
:101BC000E4B2A34230D934256543291D3000791889
:101BD0000BF0CCFD0028F1D07D196B8A092BEBD1DD
:101BE000AB79002BEAD12B6B5A1E9341AA8A013A9A
:101BF0009340019A1A4353B20193DFE7AA8A110076
:101C000030390129DAD8A9790029D7D1302A22D050
:101C1000297C2A6B1D00481E85402A4202D08B4039
:101C20005B421A439346C9E70223019A029D510081
:101C3000039C92071940D20F4346FD209B69034045
:101C40000B43FE210B40134342469361A5E7591E07
:101C50008B415B4258E7297C2A6B1D00481E85405A
:101C60002A4202D08B405B421A439246A6E70022EA
:101C70000021E1E738880220348802209A99999956
:101C80009999B93F0000F03F0300C0681A6910B588
:101C9000824203D00021121A0EF046FA10BDC0464F
:101CA000F8B54746CE460C0080B5070000292BD07A
:101CB00046680368294AF51A8368521B9B1B9942A0
:101CC00026D98A4246D30E00A94229D37619B542B5
:101CD0002AD8002E28DB28D100239846434622002C
:101CE000581900210EF020FA3B6899464A467B6855
:101CF0009A1A002A1FDC4B46002B27D14346651950
:101D000045443B607D60BE60C0BCB946B046F8BD8E
:101D10000A003000002134190EF006FA7C60F3E767
:101D20002E007619B542D4D90C4E30000EF008FAC8
:101D300080464644D2E7494640461DF04BFF4A469E
:101D4000BB68991A48460EF00BFAD7E74A46BB68BB
:101D5000991AF7E7024814F0ADFCC046FFFFFF7F79
:101D60000013022001235B4270B50360436083606F
:101D700000230400C3600361436183610133FF33C7
:101D8000838380210C30FFF78BFFE0682269824259
:101D900003D00021121A0EF0C7F90A200BF04EFDF5
:101DA000D02580232D06DB00AB62002201210A2012
:101DB0000BF02AFD0B200BF041FD80231B01AB62D1
:101DC000002201210B200BF01FFD0C200BF036FD33
:101DD00080235B01AB62002201210C200BF014FD7B
:101DE0000D200BF02BFD80239B01AB620022012113
:101DF0000D200BF009FD0E200BF020FD8023DB01F0
:101E0000AB62002201210E200BF0FEFC13200BF030
:101E100015FD80231B03AB620022012113200BF070
:101E2000F3FC14200BF00AFD80235B03AB6200225D
:101E3000012114200BF0E8FC15200BF0FFFC80239F
:101E40009B03AB620022012115200BF0DDFC162064
:101E50000BF0F4FC8023DB03AB620022012116208F
:101E60000BF0D2FC1A200BF0E9FC8023DB04AB6200
:101E7000002201211A200BF0C7FC200070BDC046D3
:101E800070B50C4C2378BFF35B8FDB0702D50A4D8E
:101E9000280070BD200014F081F8074D0028F7D00D
:101EA0002800FFF75FFF05481DF0F0F8200014F050
:101EB00091F8EDE7DC87022084980220D908002001
:101EC00070B50C4C2378BFF35B8FDB0702D50A4D4E
:101ED000A86970BD200014F061F8074D0028F7D004
:101EE0002800FFF73FFF05481DF0D0F8200014F050
:101EF00071F8EDE7DC87022084980220D9080020E1
:101F000070B50C4C2378BFF35B8FDB0702D50A4D0D
:101F1000287F70BD200014F041F8074D0028F7D04D
:101F20002800FFF71FFF05481DF0B0F8200014F04F
:101F300051F8EDE7DC87022084980220D9080020C0
:101F400070B50F4D04002B78BFF35B8FDB0707D50F
:101F500063B20020002B02DB0A4BDB68185D70BD0A
:101F6000280014F01BF80028F2D00648FFF7FAFE0C
:101F700005481DF08BF8280014F02CF8E8E7C0465F
:101F8000DC87022084980220D908002010B50E4C6E
:101F90002378BFF35B8FDB0706D50C4B186801F085
:101FA00075F9431E984110BD200013F0F7FF00287B
:101FB000F3D00748FFF7D6FE06481DF067F820006B
:101FC00014F008F8E9E7C046DC87022034880220D4
:101FD00084980220D9080020F8B5574645464E4659
:101FE000DE460368E0B547689246344A9946FB1AD4
:101FF000050088469B1093425CD00126002B02D03E
:102000005E00B34250D843464A469C1A002E1BD16C
:1020100000239B4652465B4612681A51002C23DC73
:10202000434604345C44FF1A002F30DC4B46E7196A
:10203000002B35D15B466F60AE602B60F0BCBB46B9
:10204000B246A946A046F8BD80239B059E422FD2EA
:10205000B60030000EF074F8834652465B461268B4
:102060005E441A51002CDBDD2200494658461DF023
:10207000B1FD434604345C44FF1A002F07DC4A4696
:10208000AB68E719991A48460EF06AF8D2E73A00A9
:10209000414620000EF04EF84B46E719002BC9D000
:1020A0004A46AB68991AEEE74A46054E8C1AD0E7C5
:1020B000024ECDE7034814F0FDFAC046FFFFFF1FB4
:1020C000FCFFFF7F1C130220F0B54F46D646464664
:1020D00099460B1DC0B5140006000F009A469A429F
:1020E0003ED04B461D681369AB4210DDCB68984665
:1020F00093426CD0100014F05DF80369AB4257DADC
:10210000C368002B00D176E03460746022E0AB42FB
:102110001DDA0B69934247D0100014F035F80369BB
:102120009D426BDAE368002B00D17EE03060706086
:1021300010E02300002908D0A04500D17CE0200059
:1021400014F038F823000400026995422CDC0023C7
:10215000346073603000E0BCBA46B146A846F0BDBA
:102160004B69002B05D04A460B69126819698A42EF
:102170001ADCBD68002D2DD04B46196804E0AA6812
:102180000123002A07D015002C69A142F7DBEA6879
:102190000023002AF7D12A00002B1CD18C4226DA1A
:1021A000002372603360D5E7002273603260D1E7AC
:1021B000BC68002C05D144E00121A368002BB8D0F5
:1021C0001C0022699542F7DB0021E368F6E7036013
:1021D0004360BFE75546FB68AB4229D0280013F0A7
:1021E000E9FF4B462A00196805000469D6E7002379
:1021F00035607360AEE733607060ABE7BC68002C9D
:1022000005D120E00121A368002B06D01C00226923
:102210009542F7DB0021E368F6E72300002994D01C
:10222000FB689C4200D08AE700233360746091E72A
:102230000023756033608DE700233360434673608D
:1022400088E7544678E75446EAE7C046F0B5DE46EC
:1022500057464E464546E0B58DB001937F2000239A
:10226000029204AA1382138308400C00CFB20AAA78
:1022700008A911F0B7F804AB198B188A05F068FEAD
:10228000002805D0380001F0D7FC0500061E25D136
:10229000380001F0D1FC0500061E08D100263000F0
:1022A0000DB0F0BCBB46B246A946A046F0BD380012
:1022B00001F0AAFE0028F1D1C94B9B469B68002B78
:1022C00000D1E1E104225A4403E01A009B68002B8C
:1022D0001CD01969A142F8DADB68F8E7380001F090
:1022E00093FE0028D4D1BE4B9B469B68002B00D1A7
:1022F000B0E004225A4404E01A009B68002B00D18D
:102300003CE11969A142F7DADB68F7E75B46043381
:1023100090469A4202D01369A34222DD18200DF0A4
:102320000FFF0023C146436103004A460461103396
:102330008046594608A8FFF7C7FE089B099A9946A8
:10234000002A00D173E12800002B00D17BE15B461D
:102350004146043313F04AFF5B465A465B6901333A
:10236000536143465B693800994602F02FF9002813
:102370002FD00378002B2CD0002303971F002B00B5
:10238000B04605004E469A46A14607E0012B00D113
:10239000D6E001372B78FFB2BB4216D934247C43F8
:1023A000211D300069180BF0E1F90028F1D02C193B
:1023B000638A092BEAD1A379002BEAD1236B002B86
:1023C000E7D00123019A1370E3E746464C46554691
:1023D000039F5B469B68002B00D159E104225A44BD
:1023E00003E01A009B68002B04D019698C42F8DDC9
:1023F000DB68F8E75B46043390469A4202D01369E3
:10240000A34221DD18200DF09BFE0023C14643614D
:10241000030004614A468046594610330AA8FFF774
:1024200053FE0B9A0A9C002A00D1CEE02800002C13
:1024300000D1EEE05B464146043313F0D7FE5B4625
:102440005A465B690133536143463800596901F0CC
:10245000CFFE24E704235B44984618200DF070FE5D
:102460000023C146436103004A460461103380469D
:10247000594604A8FFF728FE049B059A9946002AAE
:1024800000D1DAE02800002B00D111E15B46414683
:10249000043313F0ABFE5B465A465B69013353616C
:1024A00043465B69002B00D1F2E6002202990A70D4
:1024B00001990A70197A5A788946597A8846072A02
:1024C00000D991E047489200825897460522029928
:1024D0000A70DB780122002B01D1019B1A78434658
:1024E000102B78D84B46102B75D8019B1A705B4681
:1024F0009B68002B00D1F4E004225A4403E01A0048
:102500009B68002B44D01969A142F8DADB68F8E730
:10251000062202990A70DCE7022202990A70D8E7C3
:10252000042202990A70D4E70A2202990A70D0E7BD
:10253000082202990A70CCE7092202990A70C8E7BA
:10254000A38A1A00303A012A00D922E7A279002A88
:1025500000D01EE7302B00D1B8E004240221012076
:10256000644234237B43EB181A6B713A1E2A00D95C
:1025700092E0029B1A7822401A700AE75B46043305
:1025800090469A4200D168E71369A34288DD64E768
:102590005B46043390469A4203D01369A34200DCA1
:1025A00052E718200DF0CCFD0023C1464361030023
:1025B00004614A4680465946103306A8FFF784FD59
:1025C000079A069C002A00D030E7404618210DF0FB
:1025D000C7FDA04638E70123019A137087E7C0467C
:1025E00038880220381302201A79944660465A79B6
:1025F0006F2841D8042084466146029801706F2AF2
:102600002FD801218C466146029802780A43027055
:102610005FE75B4604339A4200D10BE743461169FA
:102620001B6901208B4200DB0020C0B202E740465C
:1026300018210DF095FDC84693E6404618210DF08F
:102640008FFDC8462CE75B4604339A4200D17EE6F4
:10265000434611691B6901208B4200DB0020C0B298
:1026600075E6902A00D834E7022084466046029935
:102670000A7802430A702CE79028C0D908218C46BA
:10268000604602990870BAE704235B44984645E621
:1026900004235B449846B5E6029A12782240029CD5
:1026A00052B222701B6B6F2B15D80243227070E65A
:1026B0005B4604339A4200D1E8E6434611691B6940
:1026C00001208B4200DB0020C0B2DFE60D24082190
:1026D0000420644245E7902B00D85AE60A43227052
:1026E00057E604235B4498465BE7012202990A708F
:1026F000EFE6C046F0B557464E464546DE46002357
:102700000022E0B58BB00692079300230893C24BDA
:102710000600DD6804331F0004AC9D4206D11EE0B4
:10272000280013F031FD0500B84218D02B0022001C
:10273000103303CB03C2207801F076FB0328EFD1DE
:10274000089B07990093994200D124E1049B28003B
:1027500008C1079113F018FD0500B842E6D1002327
:102760009946013398460023009302ABDF1DAB4B23
:102770009A46AB4B9B4633004646984600233B7037
:1027800023705346186800F07BFD3041C30754D5D1
:10279000A44A136801331360012E17D053461868FA
:1027A00000F074FD002800D1CCE04B4601333ED14F
:1027B0000698002803D00899091A0DF0D1FC0BB037
:1027C000F0BCBB46B246A946A046F0BD4046FE233B
:1027D000D02280691206034030005168890B88437B
:1027E000414603438B613100536852689B0A994309
:1027F0000B0039780B435BB2120501D4022213435C
:10280000D02212065268D20401D404221343D022EB
:1028100012065268920401D4082213434246117FE3
:102820000F22DBB20A401B011343424613770123F8
:102830005B429C46013EE144A0E75B465A461B686A
:10284000009901331360079B069A01939B1A9B1012
:10285000994251D30125280004F018FA002803D02A
:102860004378002B00D0BBE00135EDB2082DF2D14A
:10287000073D280004F080FC002803D04378002B9B
:1028800000D0C3E00135EDB2082DF2D1073D28009C
:1028900004F078FE002803D08378002B00D0A9E054
:1028A0000135EDB2082DF2D122003900300004F0DC
:1028B00069F8002800D178E75B4B5B4A1B680193FD
:1028C00001331360002E2AD153461868464600F0A3
:1028D000DDFC002800D06BE7FD23B26913402278AD
:1028E000002A01D0022213430F22B361337F9343A6
:1028F0003A78134333775BE78B000D0040469958D5
:1029000023003A00FFF7A2FC002849D0474A136889
:1029100001331360009B01330093002ED4D0424654
:10292000FE23926913402278511E8A411343424686
:1029300093610F23127F13403A78120113434246EA
:10294000137732E74246FD2392691340D0221206E4
:102950005268520127D542469361D02201231206C4
:1029600051685268C90C8B4339780B435BB2D20271
:102970002ED5D02212065268920221D5D0221206FC
:102980005268520212D542460F21127F8A431343E6
:102990004246137709E7220006A8FFF71DFBBFE6B2
:1029A0000135009556E702221343D4E7082213436A
:1029B00042460F21127F8A43134342461377F4E6BF
:1029C00004221343D022120652685202DBD4EDE7F0
:1029D00002221343D022120652689202CED4EFE7AD
:1029E00023003A00F1B204F075F9114A136801337B
:1029F000136092E723003A00F1B204F0CDFF0D4BD3
:102A00000C4A1B6801930133136086E723003A00E8
:102A1000F1B204F0D7FB80E7388802203488022026
:102A2000FC87022020880220F487022024880220CC
:102A3000F0870220F887022070B50D4C2378BFF391
:102A40005B8FDB0704D50B4D2800FFF753FE70BDED
:102A5000200013F0A3FA074D0028F5D02800FFF757
:102A600081F905481CF012FB200013F0B3FAEBE7E4
:102A7000DC87022084980220D9080020F0B5C646E1
:102A80007F2400B5044040B290B000282CDAA84D55
:102A9000AB68002B11D0291D03E019009B68002BA7
:102AA00005D01A699442F8DDDB68002BF9D12F1D9F
:102AB000B94202D00B699C4234DA200001F092FC4A
:102AC0000DF042FBAB688046002B00D1A4E21A0057
:102AD0002E1D04E016009268002A00D134E111692D
:102AE0008C42F7DDD268F7E7200001F09DF901285C
:102AF00000D172E00228CAD0032800D1C0E08D4B7B
:102B0000186800280AD08C4B8C4A1B6812688C49C4
:102B10009B188C4A0968126800F098FB10B080BCC2
:102B2000B846F0BD200001F05DFC26000DF00CFB66
:102B3000AB68803E8046F6B2002B7AD019003C008C
:102B400003E00C008968002905D00A699642F8DD87
:102B5000C9680029F9D12A1D94426BD02269964296
:102B600068DB424662612C1D03E01C009B68002B61
:102B700005D01A699642F8DDDB68002BF9D12B1DD0
:102B80009C4202D023699E421EDA18200DF0D8FA2A
:102B900000232700436103003A0006610400290076
:102BA00010330AA8FFF790FA0B9A0A9F002A00D167
:102BB00078E10120002F00D185E12B1D210013F0C9
:102BC00015FB6B6901336B613000616901F010FB2B
:102BD0005C4A13680133136091E7554DAB68002BD5
:102BE00012D02A1D03E01A009B68002B05D019693A
:102BF0008C42F8DDDB68002BF9D12B1D9A4203D003
:102C000013699C4200DB7AE708200DF09DFAAB685F
:102C10008046002B00D1ADE11A002E1D04E0160005
:102C20009268002A00D159E111698C42F7DDD2681F
:102C3000F7E73C0018200DF083FA002343610300FE
:102C40002200066107002900103308A8FFF73CFAAC
:102C5000099A089C002A00D11EE10120002C00D115
:102C600026E12B1D390013F0C1FA6B6901336B614A
:102C70004246AB687A61002B00D074E72C1D84E7D4
:102C8000200001F0AFFB0DF05FFA294D8046AB68E4
:102C9000002B00D1A8E11A002E1D03E01600926857
:102CA000002A05D011698C42F8DDD268002AF9D1DA
:102CB0002A1D964203D03269944200DB8FE018202F
:102CC0000DF03EFA00234361030032000461070067
:102CD000290010330CA8FFF7F7F90D9A0C9E002A73
:102CE00000D18CE00120002E00D167E12B1D3900BE
:102CF00013F07CFA6B6901336B614246AB687A6111
:102D0000002B00D187E02E1D03E01E009B68002BE6
:102D100005D01A699442F8DDDB68002BF9D12B1D30
:102D20009E4279D033699C4200DB94E074E0C04657
:102D3000388802203488022054980220F071032041
:102D400050980220EC8702202A1D964202D0326958
:102D5000944247DA18200DF0F3F900234361030091
:102D60003200046107002900103304A8FFF7ACF912
:102D7000059A049E002A48D00120002E00D135E19A
:102D80002B1D390013F032FA6B6901336B61424637
:102D9000AB687A61002B27D12E1D18200DF0D0F9D9
:102DA00000233700436103003A0004610600290054
:102DB000103306A8FFF788F9079A069F002A00D16A
:102DC000D2E00120002F00D11BE12B1D310013F0B8
:102DD0000DFA6B6901336B6120007169F6E64246BA
:102DE000726190E7424672612E1D03E01E009B68EF
:102DF000002B4AD01A699442F8DDDB68F8E7380006
:102E000018210DF0ADF9370077E7380018210DF0E3
:102E1000A7F93700BBE72E1D18200DF091F900230C
:102E20003700436103003A000461060029001033B3
:102E30000EA8FFF749F90F9A0E9F002A00D18DE0E6
:102E40000120002F00D1C4E02B1D310013F0CEF97A
:102E50006B6901336B617169200001F0C9F9804A27
:102E60000AAE136808AD0133290013602000320058
:102E700010F0B8FA3188288805F06AF8002800D1E7
:102E80003DE6200005F074F839E62B1D9E4284D003
:102E900033699C42A0DA80E7380018210DF060F910
:102EA0002700E5E6200018210DF05AF93C008BE6DA
:102EB0002B1D9A4200D1D4E63B6911698B4200DB9D
:102EC0000020C0B2CDE62B1D9A4200D175E62369E1
:102ED00011698B4200DB0020C0B26EE62A1D9642CB
:102EE00049D03269944246DB424672612E1D03E0AE
:102EF0001E009B68002B04D01A699442F8DDDB6841
:102F0000F8E72B1D9E4202D033699C421DDA18203F
:102F10000DF016F900233700436103003A00046105
:102F200006002900103302A8FFF7CEF8039A029F8B
:102F3000002A73D00120002F00D185E02B1D310025
:102F400013F054F96B6901336B612000716901F072
:102F50004FF9444A136801331360D0E5300018215B
:102F60000DF0FEF83E0076E7300018210DF0F8F87D
:102F70003E0031E72E1D18200DF0E2F800234361DA
:102F80000300320004610700290068461033FFF790
:102F90009BF8019A009E002A46D00120002E49D0BD
:102FA0002B1D390013F022F96B6901336B61424626
:102FB000AB687A61002B99D12E1DA8E72B1D9A4290
:102FC00000D193E63B6911698B4200DB0020C0B25F
:102FD0008CE62B1D9A4200D136E7336911698B428A
:102FE00000DB0020C0B22FE72E1D68E62B1D9A42A1
:102FF00000D1C5E63B6911698B4200DB0020C0B2FD
:10300000BEE62B1D9A4200D1DFE6336911698B427F
:1030100000DB0020C0B2D8E62E1D9BE63000182150
:103020000DF09EF83E0090E7380018210DF098F85A
:103030003700BCE72B1D9A42B2D03B6911698B4225
:1030400000DB0020C0B2ABE72B1D9A4200D175E730
:10305000336911698B4200DB0020C0B26EE7C046C5
:1030600054980220509802200022044B191D1A7116
:103070009A60D96019615A617047C0463888022049
:10308000C841704720235B1AD841704770B50400CF
:10309000002906D10578012D2DD0023D012D18D92A
:1030A00070BD0229FCD10578012DF6D1461C3000F7
:1030B00000F070FD0123C356072BF1DC300000F057
:1030C00069FD437801334370300000F067FDA5705F
:1030D000E6E70126651C280000F05CFD320023783D
:1030E000023B9A401300C2785340C370280000F09E
:1030F00055FDA670D4E7461C300000F04BFD0123BF
:10310000C3560633CCDB300000F044FD4378013B6E
:103110004370300000F042FDA570C1E770B5002596
:1031200004000570013000F009FD01230022A370A6
:103130000023A261E36122626362A262E36222630E
:10314000636308236560A560E560256163612020F5
:103150000CF0F6FF050063692061581E40088000EE
:103160002D18FC2040000CF0EBFF0300F933FF3377
:1031700028606562E0616563E062A061A06223622D
:103180002000236370BDC046F0B5C64600B52C4C88
:1031900082B005002B4920000EF0D6FE0321082046
:1031A0000AF018FB032109200AF014FB0022012178
:1031B00008200AF029FB0022012109200AF024FB43
:1031C0003C234022009480211F4804F0EBFF112390
:1031D00012222A646B641023AB643C332C009846A3
:1031E000D02601274034A844360620680AF026FB82
:1031F0003B0001CC002283400121B3620AF004FBB2
:103200004445F2D16C1C200000F0C4FC0123C356DD
:10321000DA1D0FDB082B07DC0BF070FAA863E963FB
:1032200002B080BCB846F0BD200000F0B3FC08231B
:103230004370F1E7200000F0ADFCF9234370EBE7A9
:10324000307B0220801A060070B5022010B5446859
:103250008C4205D00124847041608260C36010BD3F
:1032600084689442F6D1C4689C42F3D1F4E7C04626
:1032700010B5013000F08EFC407840B210BDC04661
:1032800010B5013000F086FCC07810BD10B50130DB
:1032900000F080FC807810BD70B5461C0400300042
:1032A0000D0000F077FC8570300000F077FC012302
:1032B000A37070BDF0B5DE4657464E464546E0B5B4
:1032C0000500404B8DB01800994605F00BF82B6AAD
:1032D000AC699A466B6A00269B46AB6A08AF0393BB
:1032E000A3422AD00697236865689846002B5CD0D5
:1032F00005950F2D38D8012D5BD11B7802AA1376C6
:103300003A00002307955355069B32004846029326
:1033100000930021012304F0EDFF06980936F6B270
:10332000B84204D0089B591C02930CF019FF1834C2
:10333000544528D0039BA342D4D1234B4846009345
:103340001B220123182104F0D5FF204B00220093FB
:1033500022210123484604F0CDFF0DB0F0BCBB464E
:10336000B246A946A046F0BD002205A906A813F062
:10337000B9F9059B069008932A0041460CF0DAFE45
:10338000059D069ABDE75A465468FC2252009246B3
:103390005B46039A0433A244A242CED006979B46D2
:1033A000236865689846002BA2D1002D06D13A000B
:1033B000A7E73A00002DA4D03800DDE7044813F059
:1033C00061F9C04670B502208413022090130220D8
:1033D00058130220F0B5C64600B505008AB0052096
:1033E0000BF012FC324E0700300004F07BFF314836
:1033F00000F05CFB304B02AC9846020041466B6823
:1034000020000EF06FF9012300220021300000940B
:1034100004F070FF294800F049FB41460200AB6808
:1034200020000EF05FF901230922002130000094F2
:1034300004F060FF224800F039FB41460200EB68CF
:1034400020000EF04FF901231222002130000094D9
:1034500004F050FF681C00F09DFB8378002B25D101
:10346000184800F023FB010020001CF0AFFF0123EF
:103470001B2230000021009404F03CFF38000CF0C7
:103480004FFA0022104B0CF0C2F902000B00200092
:103490000E490EF027F90123242200213000009468
:1034A00004F028FF0AB080BCB846F0BD0848D8E751
:1034B00070B50220B8130220C8130220D0130220D6
:1034C000DC130220A813022080842E41EC1302207A
:1034D00098130220F8B505000C0001290DD801262B
:1034E000471C380000F056FB3200A240C37853401E
:1034F000C370380000F052FBAE70F8BDD0231B063D
:103500005A680123016CF0B58B4004008BB01A425D
:1035100034D1C36C0A2B03DC0133C3640A2B4BD0B8
:10352000D02301251B065A682B00616C8B401A4280
:1035300027D000232365D0231B065A680123A16CE2
:103540008B401A422CD1636D0A2B2CDDA378002B03
:1035500012D00023A3702378012B59D0022B00D165
:103560007DE0032B00D192E0042B00D19CE0002BE6
:1035700026D05B4804F0F0FE0BB0F0BD0023C3641E
:10358000CEE7236D0A2BD6DC013323650A2BD2D17B
:103590002078052101300BF0C5FEA5702170CAE727
:1035A00000236365D2E7013363650A2BCED1022184
:1035B0002000FFF76BFDC9E70021FFF767FDAFE7CC
:1035C000474D280004F08EFE464B00221E212800A5
:1035D0000093022304F08EFE434B19221C21280085
:1035E0000093012304F086FE404B28222821280066
:1035F0000093012304F07EFE3D4B372200932D21E2
:103600000123280004F076FEA378002BB4D1B0E7A4
:103610002000FFF7DFFE374800F048FA304E02ADD9
:1036200000210090012330002D2204F063FE2A00C7
:10363000314B83CB83C21968601C11601B791371F5
:1036400000F0A8FA01232A22C3560021EB18DA71F0
:103650003000012300950C3204F04CFED4E720002A
:10366000FFF7B8FE601C00F095FAC378DB072AD498
:10367000224B002202AD280021490EF033F801232D
:10368000362200211648009504F034FEBCE72000E5
:10369000FFF7A0FE601C00F07DFAC3789B0714D4EE
:1036A000164B012202ADE6E70BF028F8A56BE66B9E
:1036B00002000B00401BB141050000290ADC06D0C6
:1036C0000123A37058E70F4BD3E70E4BE9E70E49F0
:1036D0008D42F5D92000A263E363FFF7EBFD93E78A
:1036E00070B50220341402203C1402204814022039
:1036F00050140220FC13022008140220241402207B
:10370000281402201C1402201FA10700F0B54F4608
:103710004646D6460D00C0B54169466AC269771A69
:10372000BB109946836904009B1ADB109C469A00E3
:1037300062441301D2181302D2181304D3184A4654
:103740005B00013A6344944652006244D000821AFE
:103750009B18A0682269121AD21094469200624403
:1037600010018046424410028046424410048046C4
:103770004244520062449A18464B9A4200D184E077
:10378000236862689846F31A9B10D31A012B25D937
:10379000FC2040000CF0D4FC7060A6692F003000C3
:1037A000083030602B680837BB4260D03360AB68AC
:1037B000B3606B682F60736000232B726B60636A69
:1037C0001A1D5B6862621A00F932FF32E3612262FD
:1037D000A361E0BCBA46B146A846F0BD4B460233F1
:1037E00099465B009A4233D8161E00D101268023E9
:1037F0000232B6189B059E424AD2B0000CF0A0FCE3
:103800004B468246F21A5208636A9200524461693A
:1038100090461A1D914203D04046521A1CF0DAF924
:103820006368206899000CF09BFC53466660236037
:1038300043463E0063611B684644E360F933FF334F
:10384000236133686662E361F933FF3323629FE7E4
:103850004B46D21A520892009044043641450BD987
:10386000B142E5D04046721A1CF0B4F9E0E71022EC
:1038700039000CF05FFC9CE7B142D9D0721A381DB8
:10388000801A40441CF0A6F9D2E7034812F012FF58
:1038900012F0E8FE5555550558140220F0B5D646ED
:1038A0004F464646C0B50400130092B0002900D030
:1038B000C0E07B4A7B490AA80DF014FF06AE0AA8B7
:1038C00004961CF0E7FE0500030003900F2800D9C2
:1038D000D1E0012800D0AFE0202102AA52181278CE
:1038E00002A90A74310000220593CA54236BA56A09
:1038F000183B9D4200D1B0E0280008302860049BAE
:10390000B34200D1C6E02B60069B0193AB60A06A76
:10391000059B18306B60A062636B256A9A4652461D
:10392000636AA169D31A9B10013B5A00D318DA00CD
:10393000D31AE26A801AC01091468200121816014A
:10394000B44662441602B44662441604B446624465
:1039500052001218681AC0109A1883001B181E0112
:10396000B44663441E02B44663441E04B446634432
:103970005B001B18D318072B3BD863E00B00083300
:10398000984207D0896801310CF0EAFB636B9A46D4
:10399000E36A9946A169256A18316A1AD3109C46D0
:1039A0009B0063441A019B181A029B181A049A1868
:1039B0005200606AA161624453464E46181A801054
:1039C000013843001818C300181AA36A9E1BF6108A
:1039D000B3009B191F01B84643441F02B846434435
:1039E0001F04B84643445B009B19C3189A18072A62
:1039F00028D92B00183B08689942BFD1103DA84236
:103A000003D0896801310CF0ABFBFC21E06949006F
:103A10000CF0A6FB636A15225968181D0D00636B34
:103A2000F9359A46E36AFF3599466062E16125629D
:103A3000A161C1E71C4A3DE73100002800D152E7EF
:103A4000300020E02378042B01D1033BA37012B097
:103A5000E0BCBA46B146A846F0BD200004A910302B
:103A6000FFF754FE0498B04203D0069901310CF0E0
:103A700077FBA06A50E7002203A904A812F032FEE7
:103A8000039B049006930AA92A000CF053FB039BA6
:103A9000049928E7310010320CF04CFB37E7C046A0
:103AA000EC310220981402208814022070B51A49C3
:103AB00004001CF047FC00282AD0200017491CF005
:103AC00041FC002822D0200015491CF03BFC0028B6
:103AD00020D0144D200029001CF034FC03002800E5
:103AE000002B14D0104D200029001CF02BFC0300EB
:103AF0002800002B0BD00D4D200029001CF022FCCB
:103B000003002000002B02D1280000E0084870BD0F
:103B10000848FCE70848FAE7B8130220D01302204F
:103B2000DC13022098130220A8130220FC130220A9
:103B3000B0140220A0140220C0140220802270B50C
:103B4000114C05001149200052010CF0F3FA2378C2
:103B5000012B17D080220021200052010CF0E4FA42
:103B600001232370EFF3108672B6802108484901C3
:103B70001DF0BCFC80222100054852001DF0FEFC17
:103B800086F31088280070BD5088022000F01F10B6
:103B900000F01F00004870475088022070B5EFF316
:103BA000108572B68021074C490120001DF09EFC53
:103BB00080222000044952001DF0E0FC85F31088AB
:103BC00070BDC04600F01F005088022010B5194C8F
:103BD00001002378002B13D18368002B0CD1CB89F3
:103BE000012B1ED000200FE09A88042A0DD0022A53
:103BF00015D09B68002BF2D05A88012AF9D1F3E73F
:103C0000023B0020012B02D910BD03232370CB8976
:103C100008229343013B5A425341D8B2F4E7227041
:103C2000F5E70A8A0020303A012AEDD802222270F4
:103C3000EEE7C0461672032042B2030010B5002A18
:103C400034DB664A1178814220D0A721C900515C3B
:103C500099425CD0A7210901515C99425DD060492D
:103C6000515C99425FD0A7214901515C994260D0D3
:103C70005C49515C994262D05B49515C994264D085
:103C80005A490020515C994265D010BDD178002975
:103C9000DBD00021A723DB004B43D218D0780028CB
:103CA000F3D05178107811F0E3FBEEE74B4A803BFC
:103CB0001178DBB2994253D0A721C900515C9942D7
:103CC00055D0A7210901515C994259D04449515C12
:103CD00099425ED0A7214901515C994262D0414985
:103CE000515C994267D04049515C99426CD03F4940
:103CF0000020515C9942C8D13D4BD05C0028C4D013
:103D00003C4B0020D35C022BBFD10721C2E73A49CC
:103D1000515C00299ED00121BCE73849515C002943
:103D20009DD00221B6E73649515C00299BD0032182
:103D3000B0E73449515C00299AD00421AAE73249FE
:103D4000515C002998D00521A4E73049515C002935
:103D500096D006219EE7264BD05C002895D0D4E76C
:103D6000D1780029A8D091780229A5D191E72249DC
:103D7000515C0029A5D02649515C0229A1D1CAE78E
:103D80001E49515C0029A1D02249515C02299DD1D4
:103D9000C7E71B49515C00299CD01F49515C02298F
:103DA00098D1C4E71749515C002998D01B49515C50
:103DB000022994D1C1E71449515C002993D01849D4
:103DC000515C02298FD1BEE71049515C00298ED089
:103DD0001449515C02298AD106215BE798B7022079
:103DE000A80F0000181A0000501F000088240000CF
:103DF0008B2400008A2400003B050000730A0000A9
:103E0000AB0F0000E31400001B1A0000531F00005A
:103E10003A050000720A0000AA0F0000E214000038
:103E20001A1A0000521F000042B20300002A2EDBC3
:103E3000624A1178814220D0A721C900515C994281
:103E400055D0A7210901515C994256D05C49515C7B
:103E5000994258D0A7214901515C994259D05949FA
:103E6000515C99425BD05849515C99425DD05749A9
:103E70000020515C99425ED07047D1780029DBD098
:103E80000021A723DB004B43D2189078F4E74B4A7C
:103E9000803B1178DBB2994252D0A721C900515C16
:103EA000994254D0A7210901515C994258D0444904
:103EB000515C99425DD0A7214901515C994261D082
:103EC0004049515C994266D03F49515C99426BD060
:103ED0003E490020515C9942CED13D4BD35C002B32
:103EE000CAD03C4BD35C022BC6D10721C9E73A4963
:103EF000515C0029A5D00121C3E73849515C002954
:103F0000A4D00221BDE73649515C0029A2D003218B
:103F1000B7E73449515C0029A1D00421B1E7324907
:103F2000515C00299FD00521ABE73049515C002945
:103F30009DD00621A5E7264BD35C002B9CD0D4E76F
:103F4000D1780029A9D091780229A6D198E72249F1
:103F5000515C0029A6D02649515C0229A2D1CAE7AA
:103F60001E49515C0029A2D02249515C02299ED1F0
:103F7000C7E71B49515C00299DD01F49515C0229AC
:103F800099D1C4E71749515C002999D01B49515C6C
:103F9000022995D1C1E71449515C002994D01849F0
:103FA000515C022990D1BEE71049515C00298FD0A5
:103FB0001449515C02298BD1062162E798B702208F
:103FC000A80F0000181A0000501F000088240000ED
:103FD0008B2400008A2400003B050000730A0000C7
:103FE000AB0F0000E31400001B1A0000531F000079
:103FF0003A050000720A0000AA0F0000E214000057
:104000001A1A0000521F000042B20300002A2FDBE0
:10401000634A1178814220D0A721C900515C99429E
:1040200057D0A7210901515C994258D05D49515C94
:1040300099425AD0A7214901515C99425BD05A4913
:10404000515C99425DD05949515C99425FD05849C1
:104050000020515C994260D07047D1780029DBD0B4
:104060000021A723DB004B43D218524BD05CF3E76F
:104070004B4A803B1178DBB2994253D0A721C9004B
:10408000515C994255D0A7210901515C994259D000
:104090004449515C99425ED0A7214901515C994243
:1040A00062D04149515C994267D04049515C994284
:1040B0006CD03F490020515C9942CDD13E4BD05C41
:1040C0000028C9D03D4B0020D35C022BC4D107216E
:1040D000C7E73B49515C0029A3D00121C1E7394919
:1040E000515C0029A2D00221BBE73749515C00296D
:1040F000A0D00321B5E73549515C00299FD00421A8
:10410000AFE73349515C00299DD00521A9E731492A
:10411000515C00299BD00621A3E7274BD05C0028E7
:104120009AD0D4E7D1780029A8D091780229A5D1D6
:1041300096E72349515C0029A5D02749515C022903
:10414000A1D1CAE71F49515C0029A1D02349515C84
:1041500002299DD1C7E71C49515C00299CD0204908
:10416000515C022998D1C4E71849515C002998D0C4
:104170001C49515C022994D1C1E71549515C0029C1
:1041800093D01949515C02298FD1BEE71149515C86
:1041900000298ED01549515C02298AD1062160E799
:1041A00098B70220A80F0000181A0000501F000046
:1041B00088240000340500008B2400008A240000BD
:1041C0003B050000730A0000AB0F0000E314000081
:1041D0001B1A0000531F00003A050000720A00007D
:1041E000AA0F0000E21400001A1A0000521F00007B
:1041F00043B2020010B5002B34DB664B18789042B6
:1042000020D0A720C000185C90425CD0A7200001FD
:10421000185C90425DD06048185C90425FD0A72047
:104220004001185C904260D05C48185C904262D0BB
:104230005B48185C904264D05A481C5C0020944251
:1042400065D010BDD8780028DBD00020A722D2008E
:1042500042439B18A622D20099500121524A0120C4
:104260009954EEE74B4B803A1878D2B2904253D033
:10427000A720C000185C904255D0A7200001185C10
:10428000904259D04448185C90425ED0A72040012B
:10429000185C904262D04148185C904267D0404818
:1042A000185C90426CD03F481C5C00209442C8D1FE
:1042B0003E4A985C0028C4D03D4A00209A5C022AFD
:1042C000BFD10720C2E73B48185C00289ED00120E0
:1042D000BCE73948185C00289DD00220B6E7374873
:1042E000185C00289BD00320B0E73548185C0028F4
:1042F0009AD00420AAE73348185C002898D00520FB
:10430000A4E73148185C002896D006209EE7274A8B
:10431000985C002895D0D4E7D8780028A8D0987861
:104320000228A5D191E72348185C0028A5D027488A
:10433000185C0228A1D1CAE71F48185C0028A1D048
:104340002348185C02289DD1C7E71C48185C002848
:104350009CD02048185C022898D1C4E71848185C03
:10436000002898D01C48185C022894D1C1E7154851
:10437000185C002893D01948185C02288FD1BEE73A
:104380001148185C00288ED01548185C02288AD184
:1043900006205BE798B70220A80F0000181A00005B
:1043A000501F000088240000340500008B2400000A
:1043B0008A2400003B050000730A0000AB0F0000D8
:1043C000E31400001B1A0000531F00003A05000010
:1043D000720A0000AA0F0000E21400001A1A00007E
:1043E000521F000042B20300002A2FDB634A1178FB
:1043F000814220D0A721C900515C994256D0A72103
:104400000901515C994257D05D49515C994259D09C
:10441000A7214901515C99425AD05A49515C9942AD
:104420005CD05949515C99425ED058490020515C9A
:1044300099425FD07047D1780029DBD00021A723B3
:10444000DB004B43D218524BD05AF3E74B4A803B28
:104450001178DBB2994252D0A721C900515C994230
:1044600054D0A7210901515C994258D04449515C6C
:1044700099425DD0A7214901515C994261D04149DF
:10448000515C994266D04049515C99426BD03F499A
:104490000020515C9942CDD13E4BD35C002BC9D05A
:1044A0003D4BD35C022BC5D10721C8E73B49515C8A
:1044B0000029A4D00121C2E73949515C0029A3D0C9
:1044C0000221BCE73749515C0029A1D00321B6E79E
:1044D0003549515C0029A0D00421B0E73349515C33
:1044E00000299ED00521AAE73149515C00299CD0C2
:1044F0000621A4E7274BD35C002B9BD0D4E7D178CF
:104500000029A9D091780229A6D197E72349515CC7
:104510000029A6D02749515C0229A2D1CAE7204927
:10452000515C0029A2D02449515C02299ED1C7E7E1
:104530001C49515C00299DD02049515C022999D128
:10454000C4E71949515C002999D01D49515C0229E1
:1045500095D1C1E71549515C002994D01949515CA6
:10456000022990D1BEE71249515C00298FD016492B
:10457000515C02298BD1062161E7C04698B7022021
:10458000A80F0000181A0000501F00008824000027
:10459000EC0400008B2400008A2400003B0500008E
:1045A000730A0000AB0F0000E31400001B1A0000A8
:1045B000531F00003A050000720A0000AA0F000015
:1045C000E21400001A1A0000521F000042B2030059
:1045D000002A2EDB624A1178814220D0A721C9002F
:1045E000515C994255D0A7210901515C994256D09E
:1045F0005C49515C994258D0A7214901515C9942CC
:1046000059D05949515C99425BD05849515C994203
:104610005DD057490020515C99425ED07047D178F7
:104620000029DBD00023A720C00058431018083011
:10463000F4E74B4A803B1178DBB2994252D0A72174
:10464000C900515C994254D0A7210901515C99429B
:1046500058D04449515C99425DD0A7214901515C31
:10466000994261D04049515C994266D03F49515CC2
:1046700099426BD03E490020515C9942CED13D4BCE
:10468000D35C002BCAD03C4BD35C022BC6D1072392
:10469000C9E73A49515C0029A5D00123C3E738494D
:1046A000515C0029A4D00223BDE73649515C0029A2
:1046B000A2D00323B7E73449515C0029A1D00423D9
:1046C000B1E73249515C00299FD00523ABE730495F
:1046D000515C00299DD00623A5E7264BD35C002B17
:1046E0009CD0D4E7D1780029A9D091780229A6D10D
:1046F00098E72249515C0029A6D02649515C02293D
:10470000A2D1CAE71E49515C0029A2D02249515CBE
:1047100002299ED1C7E71B49515C00299DD01F4942
:10472000515C022999D1C4E71749515C002999D0FD
:104730001B49515C022995D1C1E71449515C0029FC
:1047400094D01849515C022990D1BEE71049515CC0
:1047500000298FD01449515C02298BD1062362E7CE
:1047600098B70220A80F0000181A0000501F000080
:10477000882400008B2400008A2400003B050000F0
:10478000730A0000AB0F0000E31400001B1A0000C6
:10479000531F00003A050000720A0000AA0F000033
:1047A000E21400001A1A0000521F0000F0B5DE46A5
:1047B00057464E4645469146734A9A461368E0B5B9
:1047C00001331360714B89B01870714B0E2719704B
:1047D00004AB9C4604000D00674407AE3A0031006C
:1047E0000EF000FE2900200010F058FE39888046A7
:1047F000308802F0E3FB002833D031883A886548DE
:104800000DF05EFA644EF378002B00D1DFE1634BCC
:10481000F35C002B00D181E2614BF35C002B00D1F3
:104820007EE2604BF35C002B00D17BE25E4BF35CDD
:10483000002B00D178E25D4BF35C002B00D1E0E26D
:104840005B4BF35C002B00D1DDE25A4BF35C002B99
:1048500000D1DAE209B0F0BCBB46B246A946A04698
:10486000F0BD3988308802F041F900282DD0318818
:104870003A8851480DF024FA474EF378002B00D1C6
:10488000C5E2464BF35C002B00D1C2E2444BF35C23
:10489000002B00D1BFE2434BF35C002B00D1B7E10A
:1048A000414BF35C002B00D1B7E2404BF35C002B93
:1048B00000D1B4E23E4BF35C002B00D1B1E23D4BA2
:1048C000F35C002BC6D10733A3E13988308803F0AD
:1048D0003FFB0390002800D073E13988308802F054
:1048E00023FE83463A8831884346009033480DF0D2
:1048F000E7F95B463A883188002B65D0434630485B
:104900000DF0DEF9244EF378002B00D1C4E2234BE6
:10491000F35C002B00D1CDE2214BF35C002B00D1E6
:10492000CDE2204BF35C002B00D1CAE21E4BF35CBE
:10493000002B00D1CAE21D4BF35C002B00D1CDE26D
:104940001B4BF35C002B00D1CDE21A4BF35C002B28
:1049500000D07FE70733A722D20053439846F718C9
:10496000002138000BF0E0FB43464022F454154B85
:104970002000FB181A800423FF337B8000237D7006
:104980003B7103F0AFF93BE160B5022013720320E5
:1049900014720320EC14022098B702203B0500009B
:1049A000730A0000AB0F0000E31400001B1A0000A4
:1049B000531F00008B2400002015022090150220B8
:1049C000D8150220EC040000D8480DF079F9D84E33
:1049D000F378002B00D15CE2D64BF35C002B00D1C6
:1049E00065E2D54BF35C002B00D165E2D34BF35C61
:1049F000002B00D167E2D24BF35C002B00D167E2C1
:104A0000D04BF35C002B00D165E2CF4BF35C002B65
:104A100000D165E2CD4BF35C002B00D01AE70733E1
:104A20000593A722D2005343F718002138000493BE
:104A30000BF07AFB049BC649F4540123FB7000235E
:104A40007D700B70F2781300581E8341B948305CBA
:104A5000002801D002000133B748305C002802D0A2
:104A600002000133DBB2B548305C002802D00200FE
:104A70000133DBB2B248305C002802D002000133BF
:104A8000DBB2B048305C002800D1DBE0AE4A013335
:104A9000B25CDBB2002A01D00133DBB2AB4AB25CBC
:104AA000002A01D00133DBB20B704346012B00D149
:104AB00068E1022B00D1F4E04B46002B00D1CFE09F
:104AC0005346FF22013B9BB25200934200D9C7E0FC
:104AD0000023A04A48461370049A51460832B2187F
:104AE00008F088FB43424341DBB29946994B1A7860
:104AF000002807D1A7230599DB004B43F3189A70D0
:104B000001239B46A72340200599DB004B43924994
:104B1000F3185918088059461971022A00D1FDE18D
:104B2000032A00D1FDE1012A00D119E28B4B9846FE
:104B30004B462200009341462B0089480DF0C0F8F7
:104B4000039B002B00D0D0E12900200010F0FAFCDC
:104B5000804B1B78012B30D0022B00D103E2039B4A
:104B6000002B00D0E0E13378A34200D10AE2A72372
:104B7000DB00F35CA34200D1FAE1A7231B01F35C45
:104B8000A34200D124E2774BF35CA34200D115E2AB
:104B9000A7235B01F35CA34200D105E2724BF35CF7
:104BA000A34200D1F6E1714BF35CA34200D1CDE109
:104BB0006F4BF35CA34200D1BEE12000FDF75EFF26
:104BC00048E63A8831886B480DF07AF885E600238C
:104BD000A722D20053439846F718002138000BF063
:104BE000A3FA43464022F4545B4B2000FB181A8082
:104BF0000423FF337B8000237D703B7102F078FB40
:104C00002900200010F09EFC2000FDF737FF21E670
:104C10000323A722D20053439846F71800213800F7
:104C20000BF082FA43464022F4544B4B2000FB1811
:104C30001A800423FF337B8000237D703B7102F0D8
:104C4000E9F8DDE74048305C002800D024E73F4821
:104C5000305C002800D025E7002A00D125E723E7B3
:104C6000039B002B00D1F5E543480CF09FFF524613
:104C7000494642480DF024F8A723059ADB00534328
:104C8000F6180323B370344B29009C464023664436
:104C90002000338010F056FC210039480DF010F848
:104CA0008BE74B46002B29D05346FF22013B9BB29A
:104CB0005200934222D80022264B51461A70049A81
:104CC00048460832B21808F095FA002816D1A723F2
:104CD000059ADB005343F618012333714346B37042
:104CE0001D4B9C464023664433802900200010F071
:104CF00029FC80202043FDF7C1FEABE5A723059AE0
:104D0000DB005343F618B378002BEED10233B370B7
:104D1000114B9C46052366443380E6E7012357E7A1
:104D2000022355E7032353E7042351E72416022007
:104D300098B702203B050000730A0000AB0F00008B
:104D4000E31400001B1A0000531F00008B24000016
:104D50001272032016720320EC040000E4140220F7
:104D600070160220A80F0000181A0000501F000043
:104D700088240000541502208C170220C41702203A
:104D8000EC170220A723059ADB0053434246F31891
:104D90009A70944A29009446082263441A8020009D
:104DA00010F0D0FB3378A3423DD0A723DB00F35CA7
:104DB000A3423ED0A7231B01F35CA3424CD08A4BF5
:104DC000F35CA3423FD0A7235B01F35CA34256D020
:104DD000864BF35CA34249D0854BF35CA3425DD084
:104DE000844BF35CA34200D0E7E6834BF35C002BDB
:104DF00000D1E2E67F4B9C466644B74200D1DCE638
:104E000028E50523E4E60623E2E60733E0E600238F
:104E1000FFE60123FDE60223FBE60423F9E6052372
:104E2000F7E60623F5E6F378002BBED0B742BCD0F8
:104E300010E5724BF35C002BBCD0A723DB00F3180A
:104E40009F42B7D006E56E4BF35C002BBBD0664BA0
:104E5000F3189F42B7D0FDE46A4BF35C002BAED051
:104E6000A7231B01F3189F42A9D0F3E4664BF35C20
:104E7000002BB1D05D4BF3189F42ADD0EAE4634BF9
:104E8000F35C002BA4D0A7235B01F3189F429FD0B3
:104E9000E0E400230593C4E500235CE55C4BF35C90
:104EA000002B9DD0524BF3189F4299D0D2E401239E
:104EB0000593B6E501234EE502230593B1E50223F0
:104EC00049E5032347E503230593AAE5042342E5C7
:104ED00004230593A5E505230593A2E505233AE5FB
:104EE000062305939DE5062335E5414649480CF028
:104EF000E7FE494B524649461B7848480CF0E0FE15
:104F0000A723059ADB0053430322F3189A70424B00
:104F1000032143481A700CF0D3FE15E6414B984626
:104F200006E6414B984603E6210040480CF0C8FED7
:104F30002000FDF7A3FD8DE42F4BF35C002B00D187
:104F40003BE63B4B9F4200D137E683E4304BF35CBA
:104F5000002B00D12CE6374B9F4200D128E679E4A4
:104F6000354B9846E4E580202043FDF787FD71E44A
:104F7000224BF35C002B00D1FFE5304B9F4200D168
:104F8000FBE567E4F378002B00D1F0E5B74200D1F0
:104F9000EDE55FE41C4BF35C002B00D103E6284BEE
:104FA0009F4200D1FFE555E4184BF35C002B00D184
:104FB000F4E5244B9F4200D1F0E54BE4104BF35C49
:104FC000002B00D1E4E5204B9F4200D1E0E541E415
:104FD0000C4BF35C002B00D1D5E51C4B9F4200D15C
:104FE000D1E537E4EC040000A80F0000181A000017
:104FF000501F0000882400008B2400003B050000A7
:10500000AB0F0000730A00001B1A0000E31400003D
:10501000531F0000B416022016720320EC16022063
:105020002C170220D0140220D01202205817022080
:1050300020DC0220E8D60220D8140220D0BC0220B6
:10504000B0D1022078CC022040C7022008C2022042
:10505000F0B5C646A44A00B51368A44C01331360EA
:10506000237805000E0082B0834222D0A723DB0004
:10507000E35CAB4226D0A7231B01E35CAB422CD000
:105080009B4BE35CAB4233D0A7235B01E35CAB42B9
:1050900039D0984BE35CAB4240D0974BE35CAB42DA
:1050A00047D0964BE35CAB424ED002B080BCB846D2
:1050B000F0BD63788B42D9D1E378002BD6D00023A2
:1050C00098464BE08E4BE35CB342D4D18D4BE35C0E
:1050D000002BD0D00123984640E08B4BE35CB342D9
:1050E000CED18A4BE35C002BCAD00223984635E030
:1050F000874BE35CB342C7D1864BE35C002BC3D044
:10510000032398462AE0844BE35CB342C1D1834B2E
:10511000E35C002BBDD0042398461FE0804BE35C8A
:10512000B342BAD17F4BE35C002BB6D0052398463F
:1051300014E07D4BE35CB342B3D17C4BE35C002BCA
:10514000AFD00623984609E0794BE35CB342ACD17B
:10515000784BE35C002BA8D007239846A72743464B
:10516000FF005F436B4601A99A1D28000EF03AF933
:105170006B46D9889888E71901F020FF00283ED0B7
:10518000280002F04FF9A7234246DB005343A62232
:10519000E318D200991800220A6067498C466344DC
:1051A0001A702378AB4235D0A723DB00E35CAB4217
:1051B0003BD0A7231B01E35CAB4243D04C4BE35CE9
:1051C000AB424BD0A7235B01E35CAB4253D0494BCE
:1051D000E35CAB425BD0484BE35CAB4263D0474BF4
:1051E000E35CAB426BD02800FBF752FEFBF734FECA
:1051F000A72200213800D2000AF096FF55E76B463F
:10520000D988988801F072FC002861D0280001F04C
:105210009FFEB8E7E378002BC6D06378B342E5D3AE
:10522000A723DB00E35CAB42C3D1364BE35C002B2E
:10523000BFD0334BE35CB342D8D3A7231B01E35C5D
:10524000AB42BBD1314BE35C002BB7D02E4BE35CC0
:10525000B342CBD3264BE35CAB42B3D12D4BE35CE3
:10526000002BAFD02A4BE35CB342BFD3A7235B0133
:10527000E35CAB42ABD1294BE35C002BA7D0264BC0
:10528000E35CB342B2D31B4BE35CAB42A3D1254BEF
:10529000E35C002B9FD0224BE35CB342A6D3164BBA
:1052A000E35CAB429BD1214BE35C002B97D01E4BC0
:1052B000E35CB3429AD3114BE35CAB4293D11D4BF9
:1052C000E35C002B8FD01A4BE35CB3428BD28DE7AB
:1052D0006B46D988988802F027F9002800D152E758
:1052E000280002F007FE4EE76CB5022098B70220B6
:1052F000A80F0000181A0000501F000088240000AA
:10530000390500003B050000710A0000730A000027
:10531000A90F0000AB0F0000E1140000E31400002F
:10532000191A00001B1A0000511F0000531F000033
:10533000892400008B24000034050000F0B54646A7
:105340004F46D6469846C0B5B74B17001A680E00B0
:10535000511C040082B01960002F26D04346013B47
:105360003F2B22D8B14D2B78834224D0A723DB00DA
:10537000EB5CA34228D0A7231B01EB5CA3422ED0F9
:10538000AB4BEB5CA34235D0A7235B01EB5CA342A4
:105390003BD0A84BEB5CA34242D0A74BEB5CA342B3
:1053A00049D0A64BEB5CA34250D002B0E0BCBA4659
:1053B000B146A846F0BD6B78B342D7D1EB78002B4D
:1053C000D4D000239A464BE09D4BEB5CB342D2D144
:1053D0009C4BEB5C002BCED001239A4640E09A4BCD
:1053E000EB5CB342CCD1994BEB5C002BC8D00223D1
:1053F0009A4635E0964BEB5CB342C5D1954BEB5CDE
:10540000002BC1D003239A462AE0934BEB5CB342B6
:10541000BFD1924BEB5C002BBBD004239A461FE01C
:105420008F4BEB5CB342B8D18E4BEB5C002BB4D00E
:1054300005239A4614E08C4BEB5CB342B1D18B4B05
:10544000EB5C002BADD006239A4609E0884BEB5C61
:10545000B342AAD1874BEB5C002BA6D007239A4618
:105460006B4601A99A1D20000DF0BCFF6B46D98840
:10547000988802F06DFD002834D07F4B99461B5D63
:10548000002B2FD12B78A34200D180E0A723DB0093
:10549000EB5CA34200D18AE0A7231B01EB5CA34293
:1054A00000D19CE0624BEB5CA34200D18BE0A723D0
:1054B0005B01EB5CA34200D19DE05E4BEB5CA34241
:1054C00000D1A4E05C4BEB5CA34200D1E6E05B4B77
:1054D000EB5CA34200D1D5E02000FDF7CFFA012319
:1054E0004A4613556B46D988988801F067FD002815
:1054F0002FD16B46D988988801F0F8FA002832D16C
:105500006B46D988988802F00FF88146002834D17C
:10551000A7235246DB005A4392465848424650441D
:10552000281839000AF006FEA623DB0055449A46E7
:10553000AA4453461868002806D0514B9C4665443F
:105540002B78002B00D0B5E0310020000FF0FAFFDF
:105550002BE739004246200001F040FD31002000D9
:105560000FF0F0FF21E739004246200001F0DAFA9F
:10557000310020000FF0E6FF17E739002000424617
:1055800002F018F8310020000FF0DCFF0DE76B7817
:10559000B34200D07AE7EB78002B00D176E7002207
:1055A000A723DB0053430322EB189A7094E7244BA4
:1055B000EB5CB34200D06FE7224BEB5C002B00D1D9
:1055C0006AE70122ECE7224BEB5CB34200D06EE7C6
:1055D000204BEB5C002B00D169E70322E0E71A4B7C
:1055E000EB5CB34200D05DE7184BEB5C002B00D1C5
:1055F00058E70222D4E7184BEB5CB34200D05CE7DB
:10560000164BEB5C002B00D157E70422C8E7144B84
:10561000EB5CB34200D055E7124BEB5C002B00D1A2
:1056200050E70522BCE7C04664B5022098B70220C7
:10563000A80F0000181A0000501F00008824000066
:10564000390500003B050000710A0000730A0000E4
:10565000A90F0000AB0F0000E1140000E3140000EC
:10566000191A00001B1A0000511F0000531F0000F0
:10567000892400008B240000DCE10220EE040000FD
:1056800034050000144BEB5CB34200D024E7134B0D
:105690000722EB5C002B00D11EE781E7104BEB5C8F
:1056A000B34200D013E70F4BEB5C002B00D10EE7A9
:1056B000062275E70C4A390013680133136042462D
:1056C0000AF038FD4B4600212B702000FBF738FC18
:1056D00053464A461A6037E7892400008B240000AD
:1056E000511F0000531F000068B50220A22210B510
:1056F00000210348D2000AF017FD012010BDC0466A
:1057000008A20220F0B5C646060000B504281ED83F
:10571000431EDD00ED18EB000E4FED18AD007B19B8
:1057200098467B5D002B0CD00B4B002B09D000243E
:1057300021003000FBF728F901347B5DE4B2A3427D
:10574000F6D8A2220021404652000AF0EDFC80BCAF
:10575000B846F0BD08A2022059040020F0B5574613
:105760004E464546DE46E0B50E0015001F0085B0EA
:1057700004295ED81379012B5BD992795D2A53D025
:10578000472A5ED06979582953D1422A51D15439D8
:10579000701E84463E4A02909246C20003926244C2
:1057A000D0001218940000925246125D9346012ACE
:1057B0003FD8920001925A445201A87812195244DB
:1057C00010751171002F51D02C000022B046150029
:1057D0001600A14606E02278AD18A418B34245DDB4
:1057E000BD4243DA6278052AF5D1210040460EF029
:1057F0002DFF00281DD0A378DA0927D1019A00993E
:105800005A445201890052185244937563792079A1
:105810001B0203435B055B0D538323780136ED18B0
:10582000E4184B461B79D9E7EA79812A2CD0012A62
:105830002CD0002005B0F0BCBB46B246A946A0461D
:10584000F0BDEA79D02AF4D10121A1E7019A0099AB
:105850005A44520189005218524453756379207991
:105860001B0203435B055B0D1383D6E7029A039B80
:1058700094466344DA009B18524651469B00D25C22
:1058800001200132CA54D5E7022181E703217FE7D5
:1058900008A20220F0B5CE464746194B421E984654
:1058A000D3009B1880B58D00DC006D181C196D01AC
:1058B000A4002B194344597D83B0070099460EF08C
:1058C00041FE061E05D1300003B0C0BCB946B0464B
:1058D000F0BD2A0000204B4649461C3212191B8B92
:1058E000497D42440190009038000EF073FE061E80
:1058F000E9D14B463800597D0EF048FEE3E7C0463B
:1059000008A20220F0B54F464646D64690461E4AAB
:10591000C0B591461F00431EDC00E418E3008D0073
:10592000E4186D186D01A4002B194B449A465B8B4B
:10593000060082B0BB4207D20024200002B0E0BCC7
:10594000BA46B146A846F0BD5346997D0EF0FAFD21
:105950000028F1D05C352C194C443A004146200017
:105960000AF0E8FB5346997D00232200019300933F
:1059700030003B000EF02EFE041EDED153463000F8
:10598000997D0EF003FED8E708A20220F0B583B09F
:105990000C006B4617000600991D01AA20000DF0AF
:1059A00021FD052339002000374AFFF7ABFFB57C06
:1059B00004E00120002140420DF018FF29002000E2
:1059C0000EF06CFE0028F4D11323390020002F4A7A
:1059D000FFF798FFB57C04E00120002140420DF064
:1059E00005FF290020000EF059FE0028F4D16B4677
:1059F000274ADB88934204D0264A93421DD003B045
:105A0000F0BD6A46B02392881B019A42F7D1062363
:105A100039002000204AFFF775FFB57C04E0012023
:105A2000002140420DF0E2FE290020000EF036FE7B
:105A30000028F4D16B46DB88DEE70723390020001D
:105A4000164AFFF75FFFB57C04E0012000214042C9
:105A50000DF0CCFE290020000EF020FE0028F4D12D
:105A60000623390020000E4AFFF74CFFB57C04E006
:105A70000120002140420DF0B9FE290020000EF067
:105A80000DFE0028F4D1BAE78C18022094180220E9
:105A90005E0400006F0E00005418022084180220DB
:105AA0007C180220F0B5574645464E46DE46E0B526
:105AB0000600C809771E8246F8008046C019C40057
:105AC0000019C64D80002818447D87B08C4200D153
